:1000000000000320D10100005D57010015570100D9
:10001000155701001557010015570100155701002C
:100020001557010015570100155701005D570100D4
:100030005D570100155701000D6C0100116C0100A6
:100040005D5701005D5701005D5701005D570100DC
:100050005D5701005D5701005D5701005D570100CC
:100060005D5701005D5701005D5701005D570100BC
:100070005D5701005D5701005D5701005D570100AC
:100080005D5701005D5701005D5701005D5701009C
:100090005D5701005D5701005D5701005D5701008C
:1000A000F1470100FD4701005D5701005D57010068
:1000B0005D5701005D5701005D5701005D5701006C
:1000C0005D5701005D5701005D5701005D5701005C
:1000D0005D5701005D5701005D5701005D5701004C
:1000E0005D5701005D5701005D5701005D5701003C
:1000F0005D5701005D5701005D5701005D5701002C
:100100005D5701005D5701005D5701005D5701001B
:100110005D5701001D5E01005D5701005D57010044
:100120005D5701005D5701005D5701005D570100FB
:100130005D5701005D5701005D5701005D570100EB
:100140005D5701005D5701005D5701005D570100DB
:100150005D5701005D5701005D5701005D570100CB
:100160005D5701005D570100094801005D5701001E
:100170005D5701005D5701005D5701005D570100AB
:100180005D5701005D5701005D5701005D5701009B
:100190005D5701005D5701005D5701005D5701008B
:1001A0005D5701005D5701005D5701005D5701007B
:1001B0005D5701005D5701005D5701005D5701006B
:1001C0005D5701005D5701005D5701005D5701005B
:1001D0005C4B4CF2205210B51A804DF628121A8052
:1001E00000BF00BF15F0BEFA574B4FF030621A60E7
:1001F000564A9A60564ADA60564B4FF470021A60BB
:10020000554B564A1A60564B1A78110703D51A787F
:1002100042F008021A70534B5349AA221A70534AEB
:10022000534B8B4204D252F8040F43F8040BF8E707
:10023000504B514900228B4202D243F8042BFAE77B
:100240004E494F4A002352F8230041F8230001335E
:10025000742BF8D14B4B4C4A802103F8011B93427D
:10026000FBD14A4B454A1A60494B8A221A70A3F5C2
:10027000805324225A70A0221A709A799207FCD5D2
:100280009A79D406FCD4434A937903F00C03082BE3
:10029000FAD1414B60221A7002331A78802AFCD1BD
:1002A0003C4B00221A7150225A719A799006FCD563
:1002B0009979384A4906FBD5384B394919600021EC
:1002C000596020231370937903F00C030C2BFAD19F
:1002D000344B354A1A60354A354C136813F4807331
:1002E00003D123604FF4A8531360324B324A1A6093
:1002F00000225A60072243F8042C304AC3F80C2D20
:1003000062B615F01DFC2368DA0705D52C4815F0F8
:1003100095FB2C4B2C4A1A602C4B1B785B0609D59D
:10032000284C294B22689A4204D1254815F086FBB7
:100330000023236018F024FF15F01AFA15F00EF9C7
:10034000FEE700BF0E20054030800440823F0400DD
:100350000100002B88ED00E0002008E0030000858C
:1003600002D0074000E007400C26FF1FBCAD010093
:100370003019FF1F0C26FF1F24CFFF1F0014FF1F83
:100380000000000000E400E064E400E008ED00E0AC
:10039000005006400040064001E007404480044011
:1003A0000000070304800440C010070010D0034081
:1003B00014D0034014E000E0FFE703000000202019
:1003C00080794F621CE00340A5C3945A00F00740B7
:1003D000FFFFFFFFFFFFFFFFFFFFFFFFFFFFFFFF2D
:1003E000FFFFFFFFFFFFFFFFFFFFFFFFFFFFFFFF1D
:1003F000FFFFFFFFFFFFFFFFFFFFFFFFFFFFFFFF0D
:10040000FFFFFFFFFFFFFFFFFFFFFFFFDEF9FFFF23
:1004100010B5054C237833B9044B13B10448AFF33E
:1004200000800123237010BD0C26FF1F0000000078
:10043000B8AD0100084B10B51BB108490848AFF32F
:1004400000800848036803B910BD074B002BFBD0A0
:10045000BDE81040184700BF000000001026FF1F35
:10046000B8AD01000C26FF1F0000000010B5B1F16F
:10047000FE5F4FF00003044680ED000A4160C36058
:1004800094BF88004FF0FF3015F0CCF9A0602046F3
:1004900010BD00BF70B4C168456890ED006AF7EE0A
:1004A000007AA94237EEC66A24DA83684A1C03EB55
:1004B0008103C260114683ED000A00292BDD8368A9
:1004C000DFED167A03EB8102B3EC017A9A4277EE04
:1004D000877AF9D107EE101AB8EEC77AC7EE876AA5
:1004E00070BC90ED007A66EE867AE0EE077AB0EEA8
:1004F000670A7047002D866807DD334606EB8504E2
:100500005A6843F8042BA342FAD106EB85058660AE
:1005100005ED010AD1E7DFED016AE1E70000000027
:10052000164B10B583FB01320446CB17B1F1FE5FC9
:100530004FF00000C3EBA2032061216098BF880048
:10054000636088BF4FF0FF3015F06CF96368A060FE
:10055000B3F1FE5F94BF98004FF0FF3015F062F9E1
:100560006368E060002B06DD002200EB830340F8A7
:10057000042B9842FBD1204610BD00BF676666661B
:10058000F0B4016906688368B14248DA4A1C03EB9B
:1005900081040261114684ED000A0129D3ED007A3D
:1005A0000DDD03EB81020433B3EC017AB4EE677A1C
:1005B000F1EE10FA48BFF0EE477A9342F4D1446866
:1005C000C66804F18042013A9200B71897ED007AAC
:1005D000B4EE677AF1EE10FA0CD0002C07DD151D91
:1005E00035443346596843F8041BAB42FAD1C66020
:1005F000C7ED007A002C22DDC368DFED127A0432E9
:100600001A44B3EC017A9A4277EE877AF9D107EE71
:10061000104AB8EEC70AF0BC87EE800A7047002E79
:1006200007DD1A4603EB8605546842F8044BAA42DC
:10063000FAD103EB8606836006ED010AADE7DFED34
:10064000017AE4E70000000070B504468AB0154660
:100650000E4601F063F804F10C0000F003FA314695
:1006600007A801F061F80799089A099B2160626068
:10067000A360214601A801F057F828786978AA7884
:10068000EB78E37320736173A273291D07A801F04F
:100690004BF80799089A099B21616261A36104F1F3
:1006A000100104A801F040F820460AB070BD00BF58
:1006B00070B52DED028B9FEDD18A86B003AC00257D
:1006C000B0EE480AB0EE001AF7EE000A204601F03C
:1006D00039F82A462946012301940095C84800F0BC
:1006E000E7F9B0EE480AB0EE001AF7EE000A20462D
:1006F00001F028F82B462A46294601940095C14866
:1007000000F0D6F9B0EE480AB7EE001AF0EE000A93
:10071000204601F017F8012329461A460194009556
:10072000B94800F0C5F9B0EE480AB7EE001AF0EE8D
:10073000000A204601F006F82B46294601220194C2
:100740000095B24800F0B4F9B0EE481AF0EE000A95
:10075000B7EE000A204600F0F5FF01232A461946AD
:1007600001940095AA4800F0A3F9B0EE481AF0EE03
:10077000000AB7EE000A204600F0E4FF2B462A46A6
:10078000012101940095A34800F092F9F0EE480A87
:10079000B0EE001AB7EE000A204600F0D3FF0123A6
:1007A0001A461946019400959B4800F081F9F0EE35
:1007B000480AB0EE001AB7EE000A204600F0C2FF69
:1007C00001222B46114601940095944800F070F9DF
:1007D000F0EE480AB7EE001AB0EE000A204600F02C
:1007E000B1FF2A4601230221019400958C4800F0B4
:1007F0005FF9F0EE480AB7EE001AB0EE000A2046A4
:1008000000F0A0FF2B462A4602210194009585485E
:1008100000F04EF9B0EE481AF7EE000AB0EE000A0A
:10082000204600F08FFF01231A4602210194009513
:100830007D4800F03DF9B0EE481AF7EE000AB0EE40
:10084000000A204600F07EFF2B460122022101947F
:1008500000957648012600F02BF9B0EE480AB0EE7C
:10086000001AF7EE000A204600F06CFF2A462946DF
:100870003346019400966E4800F01AF9B0EE480A2B
:10088000B0EE001AF7EE000A204600F05BFF2B46A0
:100890002A46294601940096664800F009F9B0EE10
:1008A000480AB7EE001AF0EE000A204600F04AFFB0
:1008B000334632462946019400965F4800F0F8F826
:1008C000B0EE480AB7EE001AF0EE000A204600F03B
:1008D00039FF2B463246294601940096574800F0CE
:1008E000E7F8B0EE481AF0EE000AB7EE000A20462C
:1008F00000F028FF33462A463146019400965048BE
:1009000000F0D6F8B0EE481AF0EE000AB7EE000A92
:10091000204600F017FF2B462A46314601940096E8
:10092000484800F0C5F8F0EE480AB0EE001AB7EEFD
:10093000000A204600F006FF334632463146019455
:100940000096414800F0B4F8F0EE480AB0EE001A04
:10095000B7EE000A204600F0F5FE2B46324631463F
:1009600001940096394800F0A3F8F0EE480AB7EE7B
:10097000001AB0EE000A204600F0E4FE33462A4694
:10098000022101940096324800F092F8F0EE480AF5
:10099000B7EE001AB0EE000A204600F0D3FE2B4658
:1009A0002A460221019400962A4800F081F8B0EE10
:1009B000481AF7EE000AB0EE000A204600F0C2FE28
:1009C00033463246022101940096234800F070F825
:1009D000B0EE481AF7EE000AB0EE000A204600F02A
:1009E000B1FE019400962B46324602211B4800F0CE
:1009F0005FF806B0BDEC028B70BD00BF00000000C8
:100A0000C826FF1F5827FF1F0827FF1F6827FF1F43
:100A10003826FF1F8826FF1FE826FF1F3827FF1FE5
:100A20008827FF1F2827FF1F5826FF1F4826FF1F64
:100A30002826FF1FF826FF1F7826FF1F1827FF1FF5
:100A4000D826FF1F9826FF1F7827FF1F9827FF1F14
:100A5000B826FF1F6826FF1FA826FF1F4827FF1F75
:100A6000FFF726BE30B5051D044687B0284600F0C6
:100A700055FE00230122A27023706370E370B0EE74
:100A8000001AF7EE000A9FED090A684600F05AFEC8
:100A90000099019A029B6160A2602946E36003A865
:100AA00000F042FE204607B030BD00BF000000004D
:100AB0002DE9F04387B00446051D90461F46894640
:100AC0009DF83860284600F029FE0F9984F80090C0
:100AD00084F80180A770E670684600F025FE009952
:100AE000019A029B6160A2602946E36003A800F0BE
:100AF0001BFE204607B0BDE8F08300BF904203D83C
:100B0000884238BF0846704710467047B4EEC10AA5
:100B1000F1EE10FA07DCB4EE600AF1EE10FA48BF0D
:100B2000B0EE600A7047B0EE410A7047DFED027A1E
:100B300020EE270A704700BF35FA8E3C70EE600A3F
:100B4000F0EEE00AF4EEC10AF1EE10FA4CBF01201B
:100B50000020704710EE103A5B1003F1FD5303F5CF
:100B6000DA1300EE103A704708B5DFED0E7A2DED7E
:100B7000028BB0EE408A21EE270AF0EE608A16F072
:100B80002FFAF7EE007A37EEC00AF6EE000A20EEF2
:100B9000200A77EEC07A20EE280AA7EE880ABDEC7C
:100BA000028B08BDDB0F494008B5B2EE047AF7EEC0
:100BB000007AE1EE077A2DED048BF0EE409AB0EE6C
:100BC000670AF0EE418AB0EE608A16F067FBB0EE7D
:100BD000409AB3EE000A28EE800A16F049FAB0EE09
:100BE000007AF8EE007AE8EE877AB5EE007A67EEE2
:100BF000A77A78EE690A27EE800A60EEA80A60EE0E
:100C0000077AA7EE879A80EE890A30EE290ABDECB2
:100C1000048B08BD30EE600A32EE612A31EE601AB4
:100C200020EE022A82EE010A30EE210A704700BF50
:100C300000224FF07E5142608260C26001607047C6
:100C400070B400224FF07E54426082600460C26043
:100C50000E684D688C68CA68C26006604560846032
:100C600070BC704780ED000AC0ED010A80ED021AE9
:100C7000C0ED031A704700BFF0B5D2ED006A92EDE7
:100C8000017AD2ED027ACD684F688E680C680460F4
:100C9000FDEEE66ABDEEC77AFDEEE77A85B016EEA8
:100CA00090EA17EE102A17EE903A04A901EB8E0194
:100CB0000DF1100E0EEB82020EEB830341F80C7C5B
:100CC00042F80C6C43F80C5C019D0299039A456054
:100CD0008160C26005B0F0BDD1ED016A91ED027A8C
:100CE000D1ED037A0A680260F1EE666AB1EE477AE6
:100CF000F1EE677AC0ED016A80ED027AC0ED037A09
:100D0000704700BF90ED010AD0ED006A90ED027AC5
:100D1000D0ED037A20EE000AA6EEA60AA7EE070A97
:100D2000A7EEA70AFFF716BF38B5044608460D46DA
:100D3000FFF7E8FFF7EE007A87EE800A2046D5ED50
:100D4000006A95ED017AD5ED027A95ED036A66EEBB
:100D5000806A20EE077A60EE277A20EE060AC4ED5C
:100D6000006A84ED017AC4ED027A84ED030A38BD8D
:100D7000D0ED007A91ED007A77EEC77AF0EEE77A5F
:100D8000F4EEC07AF1EE10FA29D5D0ED017A91EDAA
:100D9000017A77EEC77AF0EEE77AB4EEE70AF1EE81
:100DA00010FA1CDDD0ED027A91ED027A77EEC77A67
:100DB000F0EEE77AB4EEE70AF1EE10FA0FDDD0EDCF
:100DC000037A91ED037A77EEC77AF0EEE77AB4EE24
:100DD000E70AF1EE10FACCBF012000207047002096
:100DE000704700BFF0B52A4C85B094ED000A0C4660
:100DF000002305464FF07E5769462046019316466C
:100E0000029303930097FFF7B3FFC8BB68462146E0
:100E1000FFF78AFFDDED027A9DED015ADDED036AF1
:100E2000D6ED015A96ED006A9DED007A94ED024AE6
:100E3000D4ED014A27EEA70A67EEA57AA5EE050ACA
:100E40002846E5EE067AA6EEA60A77EEA77A97EE92
:100E5000070A37EE077A65EE800A26EE000AE7EE0B
:100E6000840AA7EEA40A26EE266A66EEE56AE7EE95
:100E7000060AA6EE870A00F0A3FB284605B0F0BDDF
:100E80001146284600F090FB284605B0F0BD00BF93
:100E9000849B010070B51C4B86B093ED000A0B4695
:100EA000002405464FF07E5602A918460394049488
:100EB00005940296FFF75CFFF8B9D3ED016A93ED54
:100EC000027AD3ED037A1B680293F1EE666AB1EE03
:100ED000477AF1EE677A11466846CDED036A8DEDEB
:100EE000047ACDED057A00F05FFB28466A4602A938
:100EF000FFF778FF284606B070BD1146284600F07F
:100F000053FB284606B070BD849B0100F0B52DED63
:100F1000028B364C85B094ED000A0C460023064641
:100F20004FF07E576946204601931546029303937E
:100F30000097FFF71DFF00284FD168462146FFF7B5
:100F4000F3FEDDED026ADDED015A95ED014A9DEDFE
:100F5000036AD5ED004A95ED025A9DED007A94EDB5
:100F6000038AD4ED021A94ED012A66EEA60A66EE13
:100F7000847AE5EEA50A3046E5EEA47AE6EE060AA6
:100F8000E6EE057AD7EE070A77EEA77A25EE201A65
:100F900024EEA00A66EEE42A25EE653A64EE200A05
:100FA00066EE443AA7EE881AE5EE842AA4EE863A65
:100FB000E6EE853AE7EEA10AA7EE820A37EE077A57
:100FC000A7EE221AE7EE030AA7EE230A00F0BAFB07
:100FD000304605B0BDEC028BF0BD1146304600F046
:100FE000A3FB304605B0BDEC028BF0BD849B010035
:100FF000F0B51F4C8DB00D46002394ED000A099307
:1010000004464FF07E5708A9284616460A930B93CC
:101010000897FFF7ADFE18BB294604A8FFF784FE2A
:10102000DDED056A9DED067ADDED077A049B0893F8
:10103000F1EE666AB1EE477AF1EE677A314601A8C1
:10104000CDED096A8DED0A7ACDED0B7A00F06CFBDF
:10105000204601AA08A9FFF759FF20460DB0F0BDB0
:101060001146204600F060FB20460DB0F0BD00BFE9
:10107000849B010070B52C4B84B0002593ED000AD1
:10108000019503460C464FF07E5610466946029580
:1010900003950096FFF76CFED0BB92ED005AD4ED9D
:1010A000017AD2ED014A92ED034AD2ED023AD4ED33
:1010B000002A94ED023AD4ED035A25EE276A64EE35
:1010C000E76A24EE677A67EEA37AA2EEA46A18466E
:1010D000E2EE856AA2EEA37AE2EE847AA3EE046AD7
:1010E000E3EE636AA5EE037AE4EEC37AA3EEE56A63
:1010F000E5EEC46AA4EEA57AE5EE257A83ED016AF1
:10110000C3ED006A83ED027AC3ED037A04B070BDCB
:1011100060682568A168E268586018461D6099609B
:10112000DA6004B070BD00BF849B0100F0B589B0E7
:1011300016461D46074668460E9CFFF779FD96ED5C
:10114000006AD5ED016AD4ED027A36EE267A37EEE2
:10115000277AB5EEC07AF1EE10FA00F38680B4EE8D
:10116000E66AF1EE10FA05DDB4EEE76AF1EE10FA88
:1011700000F3AD80F4EEE76AF1EE10FAB7EE000A84
:101180003EDC37EE800A70EE467A77EEE67AB1EE14
:10119000E70AB4EE400AF1EE10FA40F0D88094ED80
:1011A000016AD5ED006A96ED015A96ED027AD4ED0A
:1011B000005AD5ED027A30EE000A77EE867A76EEA6
:1011C000C56A37EE257A86EE806AC7EE006A87EE3A
:1011D000807AF5EE007A20EE270A8DED006ACDEDDB
:1011E000016A8DED027A8DED030A694604A8FFF7C6
:1011F0009BFD384604A9FFF76FFD384609B0F0BDE6
:1012000076EE806A36EEC60A70EE677AB1EEE70ACD
:10121000B4EE400AF1EE10FA40F0948094ED016AC9
:10122000D6ED026A94ED005A96ED017AD5ED005A9A
:10123000D5ED027A30EE000A77EE867A76EEC56A50
:1012400037EE257A86EE806AC7EE006A87EE807AEE
:10125000F5EE007A20EE270A8DED006ACDED016AE9
:101260008DED037A8DED020ABFE7B7EE000A37EE87
:10127000007AB1EEC70AB4EE400AF1EE10FA5CD182
:1012800096ED016AD4ED016A95ED025A96ED027A67
:10129000D4ED005AD5ED007A30EE000A77EEC67A2A
:1012A00076EEC56A37EE657A86EE806AC7EE006A2A
:1012B00087EE807AF5EE007A20EE270A8DED016A3E
:1012C000CDED026A8DED037A8DED000A8DE7B7EE64
:1012D000000A36EE000A70EE666A76EEE77AB1EE44
:1012E000E70AB4EE400AF1EE10FA35D194ED006A47
:1012F000D4ED016A95ED025A96ED017AD5ED005ACA
:10130000D6ED027A30EE000A77EE867A76EEC56A7E
:1013100037EE257A86EE806AC7EE006A87EE807A1D
:10132000F5EE007A20EE270A8DED006ACDED026A17
:101330008DED037A8DED010A57E7B0EE470A16F0FE
:1013400029F89DE7B0EE670A16F024F866E7B0EEDC
:10135000670A16F01FF822E7B0EE670A16F01AF8CF
:10136000C4E700BFF0B50D4695B0044617461E46CB
:10137000FFF75EFC294603A800F0D6F909AD39460F
:1013800006A800F0D1F93146284600F0CDF906ABA9
:1013900003AA21460CA80095FFF7C8FE0C990D98EA
:1013A0000E9A0F9B216060600CA9A260E36010A8F8
:1013B000FFF746FC204615B0F0BD00BF30B52DED5F
:1013C000068BDFED5B1A144689B0B0EE611AF0EEC1
:1013D000610AB7EE000A0546FFF744FC94ED000AE7
:1013E000FFF7A4FB84ED000A94ED010AFFF79EFBD2
:1013F00084ED010A94ED020AFFF798FBE37B84ED8C
:10140000020A012B00F0888094ED008A637B94ED42
:1014100001AAF6EE008A012B28EE288A04BFB1EE5D
:101420004AAA84ED01AA2AEE28AA60EE288AB0EE24
:10143000480A15F01DFEF0EE409AB0EE4A0A15F08B
:1014400017FEB0EE409AB0EE680A15F011FEF0EE0D
:1014500040AAB0EE480A15F0C3FDB0EE408AB0EEE7
:101460004A0A15F0BDFDB0EE40AAB0EE680A15F0CC
:10147000B7FDA37B68EE007A29EE800A2AEE888AFF
:1014800069EEAA9A7BBB37EEA97A78EE006A77EE0E
:10149000E99A38EE408A66EE8A7A28EE098A69EE81
:1014A0008A9A27EE099AC5ED017A85ED038A85EDC2
:1014B000029AC5ED009A04F1100105A800F034F974
:1014C00005AA29466846FFF7D7FB637B012B05D1A8
:1014D000D5ED027AF1EE677AC5ED027A284609B0B9
:1014E000BDEC068B30BD28EE496A60EE496A29EEF4
:1014F000277A29EE299AAAEE006AEAEE086AAAEE8D
:10150000297AAAEE279A85ED016AC5ED036A85ED71
:10151000027A85ED009ACEE7D4ED007A84ED000AD8
:10152000B0EE408AC4ED027AB0EE670A6EE700BF03
:101530000000000070B50D4690B00446FFF778FB40
:10154000294609A800F0F0F8297BEB7BAA7B6E7B8B
:101550008DF830100DA805F110018DF833308DF89D
:1015600032208DF8316000F0DFF809AA214601A889
:10157000FFF724FF01990298039A049B21606060A1
:1015800001A9A260E36005A8FFF75AFB204610B04E
:1015900070BD00BF10B50446FFF752FB204610BDDA
:1015A000002202604260704700220260426010B474
:1015B0000C684A68426004605DF8044B704700BFE5
:1015C00080ED000AC0ED010A704700BF10B40C683E
:1015D0004A68426004605DF8044B704791ED017AFF
:1015E00092ED016AD1ED007AD2ED006A37EE067A0B
:1015F00077EEA67A80ED017AC0ED007A704700BFE1
:1016000091ED017A92ED016AD1ED007AD2ED006A96
:1016100027EE067A67EEA67A80ED017AC0ED007AB1
:10162000704700BF30B51F4B2DED028B93ED008A44
:1016300085B0F7EE000AB0EE481A04460D46F0EE0B
:10164000408AFFF77BFA58B10023236063602A6861
:101650006B6863602260204605B0BDEC028B30BD34
:10166000B0EE481ADFED100AB0EE680AFFF766FA2E
:1016700080B995ED017AD5ED007A28EE877A67EE8C
:10168000A88A204684ED017AC4ED008A05B0BDEC3D
:10169000028B30BD01A800F041F8019A029B226044
:1016A0006360D8E7849B01000000000091ED007AA0
:1016B00092ED006AD1ED017AD2ED016AB4EEC67AFC
:1016C000F1EE10FAF4EEE67A58BFB0EE467AF1EE9B
:1016D00010FA58BFF0EE667A80ED007AC0ED017A1C
:1016E000704700BF91ED007A92ED006AD1ED017A6A
:1016F000D2ED016AB4EEC67AF1EE10FAF4EEE67AB3
:10170000D8BFB0EE467AF1EE10FAD8BFF0EE667AA6
:1017100080ED007AC0ED017A704700BF00220260C0
:1017200042608260704700BF30B4002202604260B5
:1017300082600D684C688A6882600560446030BCD5
:10174000704700BF80ED000AC0ED010A80ED021A6B
:10175000704700BFD1ED016A92ED015AD1ED027AD6
:10176000D2ED025A91ED007A92ED006A76EE856A2A
:1017700077EEA57A37EE067AC0ED016A80ED007A41
:10178000C0ED027A704700BFD1ED016A92ED015AB7
:10179000D1ED027AD2ED025A91ED007A92ED006A13
:1017A00076EEC56A77EEE57A37EE467AC0ED016AE5
:1017B00080ED007AC0ED027A704700BFD1ED016A7A
:1017C00092ED015AD1ED027AD2ED025A91ED007AF2
:1017D00092ED006A66EE856A67EEA57A27EE067AD4
:1017E000C0ED016A80ED007AC0ED027A704700BF5B
:1017F000D1ED016AD1ED027A91ED007A60EE266AB0
:1018000060EE277A27EE000AC0ED016A80ED000A3B
:10181000C0ED027A704700BFD1ED013A92ED006A47
:1018200092ED024AD1ED025AD2ED014A91ED005AF1
:1018300066EE637A64EEE56A25EE447AE3EE846A46
:10184000E4EE857AA5EE867AC0ED006A80ED017A35
:10185000C0ED027A704700BF38B52DED048BD1ED95
:10186000018A91ED009A91ED028A28EEA80A0C46B1
:10187000A9EE090A0546A8EE080AFFF76BF91A4B0C
:10188000F7EE000A93ED001AF0EE409AFFF756F9D2
:10189000F8B9F5EE409AF1EE10FA4FF000030FD0D0
:1018A000C9EE296A284688EEA97AC8EE297ABDECE5
:1018B000048BC5ED006A85ED017AC5ED027A38BD6D
:1018C000BDEC048B4FF07E5228462B60AB606A6003
:1018D00038BDBDEC048B21686268A368AB60284604
:1018E00029606A6038BD00BF849B010038B5B0EE46
:1018F000601A2DED048BB0EE408AF0EE608AF0EEB7
:10190000400A91ED000A04460D46FFF7FFF8B0EEDD
:10191000681AF0EE409AF0EE480A95ED010AFFF7DA
:10192000F5F8B0EE681AB0EE409AF0EE480A95ED80
:10193000020AFFF7EBF8C4ED009A84ED019ABDECC2
:10194000048B204684ED020A38BD00BFD0ED017A39
:1019500091ED010AD0ED005A91ED006AD0ED026AD6
:1019600091ED027A27EE800AA5EE860AA6EE870A96
:10197000704700BF00220270427082700A790270C4
:101980004A7942708A798270704700BF704700BF01
:10199000704700BF014B01221A707047B027FF1F2C
:1019A000014B00201B681847C827FF1F30B40023D5
:1019B0000124074D016A426A80F83C30056380F8D3
:1019C0003D40816180F83E30C26130BC704700BF4D
:1019D00020A50100F0B54589C469C77D05FB01F16B
:1019E00001EB41012144AFB908338DB3033111F844
:1019F000026C11F8015C11F8034C9E409C409D4024
:101A000056809580148044890137BC4202F1060259
:101A1000ECDCF0BD002DFCD0D0F82CE0002711F854
:101A2000036B11F8025C11F8014C9E409D409C40F4
:101A30003EF816603EF814403EF8155055809480EC
:101A4000168044890137BC4202F10602E7DCF0BD92
:101A5000F0BD00BFF0B54589C469C77D05FB01F144
:101A600001EB41012144BFB90132002D39D00331CE
:101A700011F8026C11F8015C11F8034C9E409C4077
:101A80009D401670557002F8014C44890137BC42E4
:101A900002F10302EBDCF0BD002DFCD001324FF06F
:101AA000000E033111F8026C11F8015C11F8037C8F
:101AB000C46A9E409D409F4034F8166034F815502B
:101AC00034F81740361224122D121670557002F891
:101AD000014C44890EF1010E744502F10302E0DC71
:101AE000F0BDF0BD406B704790F83E00704700BFFE
:101AF00070B51D4813F0DEF81B4813F0CBF808BB97
:101B000019481A4C1A4D13F0F5F81A4B21681E6843
:101B10002A684FF4836303FB006000F581730B6058
:101B200010602279144853119B0003F1604303F5C0
:101B3000624302F01F02012101FA02F21A602B79BE
:101B4000037070BD094C0D4B22680D491360938BD7
:101B50000968074D23F020031B046FF003001B0CE2
:101B6000D06093838847DCE7B827FF1F78CDFF1F3D
:101B700070CDFF1FE027FF1F1F800040CC27FF1FF5
:101B8000C427FF1F2DE9F04F2DED028BA7B00D46A6
:101B9000804605A817461E46FFF7C0FD08A8FFF7B8
:101BA000BDFDAB68D3F80090D9F8003039461DA8C8
:101BB000D3F800A023ACFFF7B7FD314620A8FFF70C
:101BC000B3FD32992046FFF7AFFD1DAA494620AB71
:101BD0001AA80094D0479DF8683006EE903A9DF818
:101BE000693007EE103A9DF86A3007EE903AF8EE49
:101BF000666AB8EE477AF8EE677A05A92046CDED19
:101C0000056A8DED067ACDED077AFFF78DFD2398F5
:101C1000259B249A089008A914A80A930992FFF713
:101C200083FD2B79092B3FD8DFE813F08500CD0029
:101C300016015F01AE011D028C02E9028B030A004E
:101C40006B79AA6803F18043013B394652F823704F
:101C50003B681DA8D3F80090FFF766FD314620A829
:101C6000FFF762FD32992046FFF75EFD20AB394653
:101C700000941AA81DAAC8479DF8683006EE903A4D
:101C80009DF8693007EE103A9DF86A3007EE903AF9
:101C9000F8EE666AB8EE477AF8EE677ACDED056A37
:101CA0008DED067ACDED077A05A90BA8FFF73CFD6F
:101CB00008A90EA8FFF738FD95ED038A0EA9B0EE2E
:101CC000480A2046FFF794FDB7EE000A30EE480AB6
:101CD0000BA920A8FFF78CFD20A91DA8FFF724FD64
:101CE0001DAA11A82146FFF735FD11A92046DFEDF9
:101CF000A50A9FEDA20AFFF7F9FDDDED236A9DED30
:101D0000247ADDED257AFCEEE66ABCEEC77AFCEEBD
:101D1000E77A16EE901A17EE102A17EE903A404620
:101D200088F8001088F8012088F8023027B0BDEC50
:101D3000028BBDE8F08F6B79012BB5DD4FF0010907
:101D4000AB6853F829A0DAF8003039461DA8D3F85B
:101D500000B0FFF7E9FC314620A8FFF7E5FC329917
:101D60002046FFF7E1FC20AB514600941DAA1AA8BB
:101D7000D8479DF868309DED055A9DED066A9DEDAA
:101D8000077A05EE903A9DF8693006EE903A9DF894
:101D90006A3007EE903AF8EEE55AF8EEE66AF8EEA9
:101DA000E77A6B7975EE255A76EE266A77EE277A12
:101DB00009F101094B45CDED055ACDED066ACDED92
:101DC000077ABDDC70E76B79012B7FF76DAF4FF0C1
:101DD0000109AB6853F829A0DAF8003039461DA88C
:101DE000D3F800B0FFF7A0FC314620A8FFF79CFC19
:101DF00032992046FFF798FC20AB514600941DAA6B
:101E00001AA8D8479DF868309DED055A9DED066AE1
:101E10009DED077A05EE903A9DF8693006EE903A0E
:101E20009DF86A3007EE903AF8EEE55AF8EEE66A69
:101E3000F8EEE77A6B7975EE655A76EE666A77EEBC
:101E4000677A09F101094B45CDED055ACDED066ADA
:101E5000CDED077ABDDC27E76B79012B7FF724AF47
:101E60004FF00109AB6853F829A0DAF80030394681
:101E70001DA8D3F800B0FFF757FC314620A8FFF7A4
:101E800053FC32992046FFF74FFC20AB514600949B
:101E90001DAA1AA8D8479DF868309DED055A9DEDFA
:101EA000066A9DED077A05EE903A9DF8693006EED8
:101EB000903A9DF86A3007EE903AF8EEE55AF8EE5F
:101EC000E66AF8EEE77A6B7965EE255A66EE266AE1
:101ED00067EE277A09F101094B45CDED055ACDEDA5
:101EE000066ACDED077ABDDCDEE66B79012B7FF764
:101EF000DBAE4FF00109AB6853F829A0DAF80030E7
:101F000039461DA8D3F800B0FFF70EFC314620A8D3
:101F1000FFF70AFC32992046FFF706FC20AB51463A
:101F200000941DAA1AA8D8479DF86830DDED054A2F
:101F30009DED065A9DED076A06EE903A9DF86930D0
:101F400007EE103A9DF86A3007EE903AF8EEE66A2E
:101F5000B8EEC77AF8EEE77AC4EEA65A6B7909F1C3
:101F600001094B45C5EE076A86EE277ACDED055A85
:101F7000CDED066A8DED077ABDDC95E60000000028
:101F80000000004300007F436B79012B7FF78CAE8C
:101F90004FF001090DF15C0AAB6853F82930039347
:101FA0001A6839461DA8D2F800B0FFF7BDFB3146CC
:101FB00020A8FFF7B9FB32992046FFF7B5FB039B3A
:101FC00000941DAA19461AA820ABD8479DF868307E
:101FD00000EE103A9DF8693000EE903A9DF86A30B4
:101FE00001EE103AB8EE400AF8EE600AB8EE411A77
:101FF0001DA8FFF7A7FB05A920A8FFF795FBDDEDBE
:102000001D6A9DED200A9DED1E7ADDED210ADDEDB4
:102010001F7A9DED221AB4EEE60AF1EE10FAF4EE04
:10202000C70A58BFB0EE660AF1EE10FAB4EEE71A2E
:1020300058BFF0EE470AF1EE10FA58BFB0EE671A3B
:102040002046FFF77FFB2399259B249A0591504654
:1020500005A907930692FFF767FB6B7909F1010960
:102060004B4599DC20E66B79012B7FF71DAE4FF0D5
:1020700001090DF15C0AAB6853F8293003931A6823
:1020800039461DA8D2F800B0FFF74EFB314620A814
:10209000FFF74AFB32992046FFF746FB039B00946B
:1020A0001DAA1946504620ABD8479DF85C3000EE7B
:1020B000103A9DF85D3000EE903A9DF85E3001EEEA
:1020C000103AB8EE400AF8EE600AB8EE411A1DA8C0
:1020D000FFF738FB05A920A8FFF726FBDDED1D6AF9
:1020E0009DED200A9DED1E7ADDED210ADDED1F7AC2
:1020F0009DED221AB4EEE60AF1EE10FAF4EEC70AEC
:10210000D8BFB0EE660AF1EE10FAB4EEE71AD8BF07
:10211000F0EE470AF1EE10FAD8BFB0EE671A20468B
:10212000FFF710FB2399259B249A05911AA805A96E
:1021300007930692FFF7F8FA6B7909F101094B450D
:1021400099DCB1E56B79012B7FF7AEAD1FED738A9A
:102150004FF00109AB6853F829A0DAF8003039468E
:102160001DA8D3F800B0FFF7DFFA314620A8FFF72B
:10217000DBFA32992046FFF7D7FA20AB514600949C
:102180001DAA1AA8D8479DF868309DED055ADDEDC7
:10219000065A9DED076A06EE903A9DF8693007EE03
:1021A000103A9DF86A3007EE903AF8EEE66AB8EE1B
:1021B000C77AF8EEE77A78EE666A38EE455A38EE76
:1021C000477A78EE655A78EE677A38EE466AF0EE2E
:1021D000484AE5EE664A6B79B0EE485AF0EE486A36
:1021E000A5EEC75A09F101094B45E6EE676ACDED48
:1021F000054A8DED065ACDED076AABDC54E56B79E7
:10220000012B7FF751AD4FF001095FEDA38A1FED60
:10221000A38A31E007EE901A36EEA66A9DED067AA3
:10222000F8EEE76AB4EEE87A66EE266AF1EE10FAA6
:10223000CDED056A5DD507EE902A77EE076AB8EE18
:10224000E77ADDED077A26EE877AF4EEE87AF1EEAA
:1022500010FA8DED067A63D537EEA77A07EE903A3D
:10226000F8EEE77A67EE277ACDED077A6B7909F118
:1022700001094B457FF718ADAB6853F829A0DAF890
:10228000003039461DA8D3F800B0FFF74DFA3146AB
:1022900020A8FFF749FA32992046FFF745FA514640
:1022A00020AB1DAA00941AA8D847DDED056A9DF859
:1022B00068109DF869209DF86A30F4EEE86AF1EE46
:1022C00010FAA7D407EE901A78EE666AF8EEE77A6D
:1022D00076EEA66A78EE677AB0EE487AA6EEE77AEE
:1022E0008DED057A9DED067AB4EEE87AF1EE10FAFE
:1022F000A1D407EE902A38EE477AF8EEE77A37EE67
:10230000077A78EE677AF0EE486AE7EE676ADDED05
:10231000077ACDED066AF4EEE87AF1EE10FA9BD476
:1023200007EE103A78EE677AB8EEC77A77EEA77ABA
:1023300038EE477AF0EE486AE7EEC76ACDED076AF5
:1023400094E76B79012B7FF7AFACDFED338A4FF069
:102350000109B0EE008AAB6853F829A0DAF8003022
:1023600039461DA8D3F800B0FFF7DEF9314620A8A2
:10237000FFF7DAF932992046FFF7D6F920AB51463C
:1023800000941DAA1AA8D8479DF868309DED055AFB
:10239000DDED065A9DED076A07EE103A9DF86930AB
:1023A00007EE903A9DF86A3004EE903AB8EEC77A9C
:1023B000F8EEE77AF8EEE44AF0EE683AB0EE684AF2
:1023C000B0EE683A67EE056AE7EE483A6B7927EEB9
:1023D000A57AA7EEC84A09F101094B4564EE867A51
:1023E000A4EEC83A76EEA66A25EE055A37EE077ACD
:1023F00065EEA55A77EEA77A26EE066AE3EE856AC1
:10240000A4EE257AE3EE067ACDED056A8DED067A27
:10241000CDED077A9FDC47E400007F432DE9F043D0
:1024200091ED091A2DED028BB5EE401AF1EE10FA7E
:1024300097B00C460646154640F0D7800DF11C09B2
:102440000FAF0DF10C089FED8B1AD4ED050A94ED3A
:10245000040A4046FFF776F941463846FFF764F92B
:102460003A4629464846FFF78FF90799099B089A8B
:102470002960AB6038466A602946FFF755F994F841
:102480002830002B4CD095ED010A95ED007A60EED6
:10249000007AE7EE077AB1EEE70AB4EE400AF1EE11
:1024A00010FA40F0E180D4ED080A14F097FEB0EE87
:1024B000C00A237BDFED6F1A94ED081A02EE103A82
:1024C000F0EE610AB8EE422AFEF7A4FB10EE100A05
:1024D000B0EE408A16F0ACFA41EC100B14F0F0FCB0
:1024E00051EC100B16F0A8FD0022237B32707270A5
:1024F000B27094F82910421C05469A42B4BF1746A0
:102500000027B1B1616800EB400529440322304641
:1025100013F02CF8304617B0BDEC028BBDE8F08309
:10252000D4ED080A95ED000A14F058FEB0EEC00A8A
:10253000BFE707EE902AB8EEE71A07EE900AB0EE72
:10254000480AF8EEE70AB7EE002ADFED4A1AFEF76E
:1025500061FB606807EB4703C218C35C07EE903A63
:10256000537805EB450506EE903A937807EE103A5E
:10257000435D054405EE903A6B7804EE903AAB78F3
:10258000B8EEC77A05EE103A27EE007AF8EEE77A51
:10259000F8EEE66AB7EE006A36EE406AB8EEC55A63
:1025A00066EE806A27EE800AF0EE477AF8EEE44A9B
:1025B000F8EEE55AE6EE057A3046E6EE246AA5EE38
:1025C000860AFCEEE77ABCEEE67A17EE902AFCEE7D
:1025D000C07A17EE101A17EE903A7170B27033701D
:1025E00017B0BDEC028BBDE8F083DFED220A684630
:1025F000B0EE600AFFF7A6F81F490F7891F801E0E6
:10260000CB788A788DF81C700DF11C090FAF08A8E3
:1026100004318DF81F308DF81DE08DF81E20FFF776
:1026200083F84A4669463846FEF70EF80DF10C0865
:1026300039460BA8FEF77EFF0BA94046FEF7AAFF1E
:1026400029464846FFF770F84A4641463846FEF7A5
:102650005DFC0F99109A119B29600BA86A60AB6012
:102660002946FFF761F8EEE6B0EE670A14F092FE35
:1026700019E700BF00000000C826FF1F10B40E4974
:102680000E4A0B68106883B00093009B1B1AFA2B4C
:102690000ED90B480B4C037824780133DBB29C42F3
:1026A00003703CBF002303700B680193019B136010
:1026B00003B05DF8044B7047A8CDFF1F64CBFF1F2C
:1026C00059CBFF1F58CBFF1F70B4194C638A984237
:1026D0001EDAA38A99421BDA237A53B1022B19D04E
:1026E000012B1ED0A3896589013B1B1A0846194698
:1026F00000E065890BB200B205FB030101EB41016B
:10270000A36910785854194453784B7093788B70A0
:1027100070BC70476589A3896E1E013B301A591A37
:10272000E8E765896B1E5B1A01461846E2E700BFC1
:10273000102BFF1F90F83E3010B4A3B9C16A174A9E
:1027400090F82840023902F5FF70002301E032F8CA
:10275000023F04FB03F31B12904221F8023FF6D123
:102760005DF8044B704790F83D3090F83C20DBB2A8
:10277000D2B280F83D2080F83C3090F83D2090F8AF
:102780003C300832083350F8221050F82320826180
:102790000023C16180F83E30D0E700BFF89D010002
:1027A0002DE9F04F2DED068B00F5BB55CBB004465F
:1027B0004348444FF0EE408A12F0E6F8424A434B59
:1027C00006462878167093F8008012F049FE3B68A0
:1027D0000493DDED047AD5ED0F6A9FED416A95ED26
:1027E0000E7AF8EEE66AF8EE677A05EE900A77EE72
:1027F000E67AB8EEE59AC7EE866A281D39EE477A82
:1028000087EE260AB0EEC00AFDF744FE05F114007B
:10281000B0EE408AFDF7B4FEDFED2D7A9FED2D1A64
:10282000DFED300A38EE400A30EE670AFEF76EF947
:10283000DFED297A05F1280080EE270AFDF72AFE50
:102840003B680593059BEB6385ED0E9AB7EE001A86
:10285000DFED240AFEF75AF9B045B0EE408A80F069
:102860003A851E4B1B780021002B00F09D85012B23
:1028700000F0CC85022B00F03B86032B00F0728623
:10288000042B00F0AA86052B04F5726204F5686338
:1028900000F0098243F8101B9A42FBD1B4F84C5F58
:1028A00041F2F06141F2307201236354A35445B305
:1028B000D4F8482F118802291ED100F0C7BE00BFEE
:1028C000F82AFF1FA8CDFF1F68CBFF1F60CBFF1F9B
:1028D00000007A4300007A450000C84259CBFF1F30
:1028E00000007A44000000000AD7233C32F8021F9F
:1028F000022900F03C85034699B2A94203F1010088
:10290000F4D304F5B65696ED087AD6ED077A3B680F
:10291000069377EE677A41F2A5730122069DE25491
:1029200017EE900A16F084F807EE905A1FED146A1D
:1029300096ED0F7AF8EE677ACDE90001C7EE866A68
:1029400076EE877A17EE900A16F072F89DED001B6E
:1029500041EC100B14F0D6FB53EC102BF069CDE9D1
:10296000002316F065F8DDE9002315F003FF16F0EB
:10297000ABFB726AB063002A00EE100A49DD96F8DC
:102980003030002B45D03069531E00EB820252F8E4
:10299000041DD1ED007AF4EEC07AF1EE10FA40F2A7
:1029A000F98413F1FF33F2D24FF000084546435942
:1029B00050F80820D3ED000A92ED001A5FED371AA7
:1029C000B7EE002AFEF726F9337A012BB0EE401A53
:1029D00000F05785022B00F0138533695FED3F0A45
:1029E00053F808205B5992ED012AD3ED011AB7EE96
:1029F000001AFEF70FF9B16A86ED0D0A002908DD0D
:102A0000F36803EB810153F8042B8B4282ED000A3B
:102A1000F9D104F5B85696ED087AD6ED077A3B68F9
:102A2000079377EE677A079D17EE900A16F000F885
:102A300007EE905A1FED566A96ED0F7AF8EE677A18
:102A4000CDE90001C7EE866A76EE877A17EE900A26
:102A500015F0EEFF9DED001B41EC100B14F052FB46
:102A600053EC102BF069CDE9002315F0E1FFDDE90F
:102A7000002315F07FFE16F027FB726AB063002A70
:102A800000EE100A49DD96F83030002B45D0306951
:102A9000531E00EB820252F8041DD1ED007AF4EED1
:102AA000C07AF1EE10FA40F26B8413F1FF33F2D2E8
:102AB0004FF000084546435950F80820D3ED000A6E
:102AC00092ED001A5FED791AB7EE002AFEF7A2F830
:102AD000337A012BB0EE401A00F0DF84022B00F0B5
:102AE000898433695FED810A53F808205B5992EDC0
:102AF000012AD3ED011AB7EE001AFEF78BF8B16A7E
:102B000086ED0D0A002908DDF36803EB810153F817
:102B1000042B8B4282ED000AF9D141F2A573E35CEC
:102B20001BB104F5706383ED008AB4F84C3F002BB1
:102B300000F03181D4F8241FD4F82C2F00266BE04C
:102B4000D4F8443F4FEA460833F8160003EB080E6A
:102B5000D4F8403F33F80830834240F2818007EEDA
:102B6000903AD4F83C3F07EE100A9B5DF8EE677A86
:102B7000B8EE477A012B87EE271A78D0C0F0FA809A
:102B8000032B40F0D880D4F8183FD4F8241F53F812
:102B900005C0D4F8202F9CED006ADCED037ADCED53
:102BA000016A9CED027AD7F800805259CDF8208056
:102BB00067EEC67A4B19E7EE667ADDF8208093ED72
:102BC000007ACCF8148077EE877AF5EE005AB0EEF2
:102BD000467AA7EEA57AF0EE667AE7EE257A8CEDD6
:102BE000007ACCED017AC2ED007AD4F82C2FD4F81B
:102BF00030CFD3F8009002EB05086544C8F8009088
:102C00002D681D600130AEF800000136B4F84C3F6D
:102C1000B6B2B34240F2BF80B5002A442944D2ED97
:102C2000000A91ED000A1FEDD01AFDF787FF00287A
:102C300086D1D4F82C2FD4F8283FD4F8441F2A4446
:102C40002B4412681A604FEA460821F81600D4F89F
:102C5000403F33F80830834201EB080E3FF67FAF68
:102C6000D4F83C3F9B5D012BB7EE001A86D1D4F817
:102C7000241FD4F8283FD4F8202F29442B44D1ED29
:102C8000000A93ED000A52F80590FDF78DFFD4F885
:102C9000442FD4F8241F32F8080089ED000A4B199C
:102CA00002EB080EA1E743F8101B9A42FBD1B4F8DF
:102CB0004C2F41F2F06041F23071012323546354F0
:102CC000002A3FF41EAED4F8480F0588032D18BF24
:102CD000064608D100F0DABC36F802EFBEF1030F69
:102CE00000F0A2840B4699B2914203F10101F3D3A3
:102CF000092D00F0CD840146012305E031F8026F73
:102D0000092E00F09A8473469EB2964203F1010E9A
:102D1000F4D3632D00F09A840146012305E031F8D5
:102D2000020F632800F023832B4698B2904203F1F0
:102D30000105F4D3E5E504F572610EC92B442A447C
:102D4000B0EE410AD3ED001ADFED2F0A92ED002A12
:102D500051F80590B7EE001AFDF75CFFD4F8443F38
:102D6000D4F8241F33F8080089ED000A03EB080E9D
:102D70004B193AE7D4F8241FD4F8283FD4F8202F71
:102D800029442B44D1ED000A93ED000A52F8059036
:102D9000FDF7EAFE7BE7D4F868345A69002A40F36D
:102DA000A5830027B84643ADD4F864241E68116893
:102DB0003E4439442846FEF7B7FC4399449A459B64
:102DC000B36031607260314609A8FEF7ADFCD4F8FB
:102DD00068345A6908F10108424507F10C07E3DC41
:102DE00004F6786804F6187998ED020AB5EEC00A80
:102DF000F1EE10FA41DD58F8043CD4F868A4002B39
:102E00003BDD00270EE000BF00000000D00F49406E
:102E1000000034430AD7A33B0000B4436F12033BC6
:102E200098ED020AD8F80030D8F8041053F827308B
:102E3000DAF8002007EB470003EB430301EB8001C6
:102E40003FA802EB8306FEF7D3FC3FA93BA8FEF7A1
:102E50006BFC3BAA31462846FEF77CFC4399459B18
:102E6000449A72603160B36031460CA8FEF75CFC96
:102E700058F8043C0137BB42D2DC08F11008C845C1
:102E8000B2D11FED1E7A5FED1E6A1FED1D8A1FED88
:102E90001FAA28EE877AB0EE029AC7EE267A27EEAE
:102EA000888A38EE080A14F0E3F8F0EE087A60EE4B
:102EB000099A28EE270A14F093F8F6EE007AF4EE59
:102EC000E78AF1EE10FAC4BFB7EE007A37EE687AFF
:102ED000B6EE008AD8BFB0EE687AF1EE087AF0EE6E
:102EE000486AE7EE276A04F67C735FED357AC3ED36
:102EF000006A68EEA78A5FED376A94F8683F20EEB3
:102F0000099AA7EE26AA78EEA88A002B00F0E9829B
:102F1000914B9FED927AD3ED007A68EEA78A002656
:102F2000C8EE877A0DF1DC080DF1CC0967EE888ACE
:102F3000B0EE680A14F09CF820EE088AB0EE680A39
:102F400014F04EF8F0EE408A06EB4607D4F8642FF2
:102F5000D4F860AFD319D25D00EE102A9A785B786E
:102F600001EE102A00EE903AB8EE411AF8EE600A2F
:102F7000B8EE400A4846FEF7E5FBF0EE481AB0EE20
:102F8000481AF0EE480AB0EE680A2846FDF76AFED5
:102F900049464046FEF7C8FB424629463BA8FDF796
:102FA000B5FFDFED6F0A9FED6F0A3BA93FA8FEF763
:102FB0009DFC3F99409A419B339130A849463492F9
:102FC0003593FEF7B1FBDDED336A9DED347ADDED2F
:102FD000357AFCEEE66ABCEEC77AFCEEE77A16EECE
:102FE000901A0AEB070017EE903A17EE102A0AF82B
:102FF00007104270837094F8683F0136B342A3DC37
:10300000B0EE4A1AF0EE4A0AB0EE4A0A3FA8FEF7BE
:1030100099FB3FA92846FEF787FB04F579614398A1
:10302000449A459B08604A608B602DA8FEF77CFBA4
:10303000F1EE007A69EEA77A04F6AC73C3ED007A7C
:10304000DFED480A626904F5B553B0EE600AB2EEEE
:103050000E1ADA6127A8FEF775FB27A92AA8FEF742
:1030600063FB41490A784B788DF8DC208DF8DD3020
:103070008A78CB788DF8DF30043138A88DF8DE20DF
:10308000FEF752FB42462AA92846FDF7DDFA2946FB
:103090003BA8FEF74FFA04F2244B3BA93FA8FEF7EA
:1030A00079FA419A429B40993F9ECBF80820CBF891
:1030B0000C30CBF8041048463FA9CBF80060FDF770
:1030C000BFFDDFED2A0A9FED2A0A9FED2A1A79EE4D
:1030D000200A39EE800A3FA8FEF734FB3FA92846B4
:1030E000FEF722FB04F234400746449A459B43997D
:1030F0007A60BB600090396040463946FEF714FBA9
:10310000B6EE001ADFED1C0A9FED1C0A3FA8FEF781
:1031100019FB04F5886A3FA92846FEF705FB439989
:10312000449A459BCAF80010CAF80420CAF808302F
:1031300051462AA8FEF7F8FAD4F86824536904F235
:103140001441002B039140F3C18004F24C4804F574
:103150008B674FF0000913E0809B010000003443AF
:1031600000007F4300000000C826FF1F0000E64269
:103170000000B44200001644666626BF9A9959BF03
:1031800009EB490311689E0031440FA8FEF7CCFA01
:10319000414627A8FEF7C8FA27A92846FEF7C4FA31
:1031A0002A460FA93BA8FEF7EFFA514624A8FEF7DE
:1031B000BBFA24A92846FEF7B7FA2A463BA93FA83E
:1031C000FEF7FCFA414621A8FEF7AEFA21A915A8A0
:1031D000FEF7AAFA15AA3FA92846FEF7BBFA4399BB
:1031E000DDF810E1459A0F9112A80FA9CDF840E043
:1031F0001192FEF799FA03992846FDF721FD294619
:103200003FA8FDF71DFD3FAA59463BA8FDF732FF39
:10321000394624A8FEF788FA24A92846FEF784FA3E
:103220002A460FA927A8FEF7AFFA27AA3BA93FA86D
:10323000FDF76CFE394621A8FEF776FA21A915A8FC
:10324000FEF772FA15AA3FA92846FEF783FA4399BA
:10325000DDF810E1459A0F9118A80FA9CDF840E0CC
:103260001192FEF761FA00993FA8FEF75DFA3FA9B7
:103270003BA8FEF759FA3BAA0FA92846FEF76AFABF
:103280004399DDF810E1459A0F911BA80FA9CDF8DD
:1032900040E01192FEF748FAD4F8682412680FA9AA
:1032A00016442846FEF740FA43984499459AB2607E
:1032B000306071601EA83146FEF736FAD4F86824F3
:1032C000536909F101094B453FF75AAF4BB0BDECCB
:1032D000068BBDE8F08F002104F5686304F5726287
:1032E00043F8101B9342FBD1B4F84C2F41F2F0602D
:1032F00041F23071012323546354002A3FF401AB9F
:10330000D4F8481F0D88032D18BF084607D1B9E12E
:1033100030F802EFBEF1030F00F0D38033469EB2C7
:10332000B24203F10106F3D8092D00F0A981084645
:10333000012306E030F802EFBEF1090F00F0B9807A
:1033400033469EB2964203F10106F3D3632D18BFB4
:10335000012305D17AE131F8025F632D07D00346DE
:1033600098B2904203F10100F5D3FFF7CABA9B006F
:10337000D4F8241F0B444FF07E521A60FFF7C1BAF5
:1033800003F101085FFA88F8DBB24FEA88089D0074
:10339000FFF791BB03F101085FFA88F8DBB24FEA4F
:1033A00088089D00FFF703BB04F5686304F57262AB
:1033B00043F8101B9342FBD1B4F84C5F41F2F0612B
:1033C00041F2307201236354A354002D3FF499AAB3
:1033D000D4F8482F1188632905D155E132F8021F2E
:1033E000632976D0034699B28D4203F10100F5D8E6
:1033F000FFF787BA33695B5993ED010AFFF77FBB8B
:1034000033695B5993ED010AFFF7F5BA04F5686378
:1034100004F5726243F8101B9342FBD1B4F84C0FD1
:1034200041F2F06141F2307201236354A354002849
:103430003FF467AAD4F8481FB1F800E09E4518BFD2
:103440000D4606D126E135F8026F012E00F000810D
:1034500013469AB2904203F10102F4D8BEF1090F6B
:1034600018BF012306D1F1E031F8025F092D3FF4C6
:103470007EAF13469AB2904203F10102F4D8FFF7EF
:1034800040BA336953F808205B59D2ED010A93ED35
:10349000010AFDF769FBFFF7AEBA336953F808205C
:1034A0005B59D2ED010A93ED010AFDF75DFBFFF7D1
:1034B00026BB9B00D4F8240F03444FF07E501860C5
:1034C00044E79B00D4F8240F03444FF07E5018606B
:1034D0002AE79B00D4F8241F0B4400221A60FFF750
:1034E00010BA0DF1DC080DF1CC0989E543AD77E4A4
:1034F00004F5686304F5726243F8101B9342FBD134
:10350000B4F84C1F41F2F06041F2307201232354B1
:10351000A35400293FF4F5A9D4F8482FB2F800E0ED
:103520001046BEF1000F07D1B6E030F8025F5E1C16
:10353000002D00F0958033469DB2A942F5D8BEF12A
:10354000080F18BF012306D180E032F8020F0828C7
:103550003FF40DAF2B4698B2814203F10105F4D838
:10356000FFF7CFB904F5686304F5726243F8101BE6
:103570009342FBD1B4F84C0F41F2F06141F230724A
:1035800001236354A35400283FF4BBA9D4F8481F77
:10359000B1F800E0BEF1070F18BF0D4605D17DE080
:1035A00035F8026F072E63D013469AB2904203F1AA
:1035B0000102F5D8BEF1080F18BF012306D145E07E
:1035C00031F8025F082D3FF4D2AE13469AB2904212
:1035D00003F10102F4D8FFF794B904F5686304F528
:1035E000726243F8101B9A42FBD1B4F84C5F41F26F
:1035F000F06141F2307201236354A354002D3FF473
:1036000080A9D4F8482F1188052906D11EE032F888
:10361000020F05283FF4ABAE0B4699B28D4203F181
:103620000101F4D8FFF76DB99B00D4F8241F0B44B7
:103630004FF07E511960FFF75BBB9B00D4F8241F4D
:103640000B444FF07E511960FFF763BB00238FE6F8
:103650009B00D4F8242F13444FF07E521A60FDE6ED
:103660009B00D4F8240F03444FF07E50186066E7A7
:103670009B00D4F8242F13444FF07E521A6099E730
:10368000002317E700231DE7002323E70023CCE7EF
:103690000023D3E70023DCE77346E2E70023E8E7F3
:1036A0002DE9F0432DED0A8BA5B00C4606460831F6
:1036B00015A81546FEF738F815A91DA8FEF734F829
:1036C0001DAA294619A8FEF779F819991A9A1B9B81
:1036D00029606A60AB6029460BA8FEF725F8D5ED96
:1036E000005A95ED016AD5ED026A94ED077A75EE00
:1036F000867A77EEA67A67EE877A75EEA74ABDEEF0
:10370000E47AB8EEC75AF4EEC54AF1EE10FA06D5DF
:1037100017EE103A013B05EE103AB8EEC55A36EEF8
:10372000277ABDEEC55AFDEEC74A15EE101AB8EE5F
:10373000E45AB4EEC57AF1EE10FA06D514EE903ADA
:10374000013B05EE103AB8EEC55A76EEA77ABDEE0B
:10375000C57ABDEEE75A17EE100AB8EEC57AF4EE58
:10376000C77AF1EE10FA06D515EE103A013B07EED6
:10377000103AB8EEC77AFDEEC77A0A1817EE903AFB
:1037800005EE101A1A4407EE102AB8EEC50A05EE27
:10379000100AB8EEC77AD4ED087AF8EEC50A05EE3D
:1037A000103AB1EE477AA7EE270AE7EE270AB8EEFD
:1037B000C51A76EE600AA7EE271A35EEC00A36EE75
:1037C000C11AB4EEE00AF1EE10FAF4EEC10A16DB0B
:1037D000F1EE10FAC0F2D0819FEDE67AB7EE00BAB2
:1037E00000220125F0EE47CAB0EE47CAF0EE4BBA10
:1037F000F0EE4B9A904694462F46AE4615E0F1EE19
:1038000010FA40F19881DFEDDBBAB7EE007A0122C1
:103810000027B0EE6BCAF0EE6B9AB0EE47BAF0EE4E
:1038200047CA15469046BC46BE469FEDCF8AA0EEDD
:10383000408ADBB2A04422441A449844A0EEE08AB5
:103840002344C0B298F8B88292F8B89293F8B9229B
:10385000A4442544844405442044C4444D440244C3
:10386000A1EE418A9CF8B88295F8B8C292F8B95294
:10387000A644CAB22744F7EE008A9644174422446D
:1038800031EE479A30EE68AA70EEE8AAC644674463
:1038900070EE699A30EECCCA71EE6CCA70EE6BBAFB
:1038A00030EECBBA154471EE688AB5EEC08AF0EE00
:1038B000086AB0EE007AF1EE10FA9EF8B88497F834
:1038C000B87495F8B95479EEA79A3CEE27CA7CEE05
:1038D000A7CAA7EEA6AAE7EEA6AAE7EEA68AE7EE93
:1038E00087BAA7EE87BAA7EE879A00F1668193F8A8
:1038F000B832184428EE088A90F8B8321A4428EEF4
:10390000088A92F8B80400EB400004EB800909F142
:1039100028091DA8FDF716FF1DA94846FEF716F851
:1039200028EE008ADFED907AE9EEE97AECEE4C7A47
:10393000ECEEEC7AF5EEC07AF1EE10FA00F13A8195
:1039400008EB480867EEA77A04EB8808B0EE690A2E
:10395000B0EE6C1AF0EE4C0A08F128081DA867EECC
:10396000A79AFDF7EFFE1DA94046FDF7EFFF69EEB0
:10397000809ADFED7D7AEBEEEB7AEBEE4B7AE9EEB7
:10398000497AF5EEC07AF1EE10FA00F1108107EBFA
:10399000470767EEA77A04EB8707B0EE491AF0EE07
:1039A0004B0AB0EE6B0A28371DA827EEA79AFDF741
:1039B000C9FE1DA93846FDF7C9FF29EE009A9FED03
:1039C0006A0AAAEE4A0AAAEEEA0AA8EEE80AB5EEE0
:1039D000C00AF1EE10FA00F1FC8005EB450560EE3F
:1039E000007A04EB8505B0EE681AF0EE6A0AB0EED4
:1039F0004A0A28351DA867EEA78AFDF7A3FE1DA970
:103A00002846FDF7A3FF68EE807A38EE298A6468BD
:103A10009FED581A9FED550A236838EE099AF0EE8B
:103A2000410A79EE277A02A827EE800A1D68FDF781
:103A300089FE05A8FDF772FE08A8FDF76FFE4C4B46
:103A40009D4240F05F8194ED091AB5EE401AF1EE07
:103A500010FA40F01D8111AD9FED461AD4ED050A14
:103A600094ED040A15A8FDF76DFE15A91DA8FDF734
:103A70005BFE28461DAA02A9FDF786FE139B119D39
:103A8000129A049302A91DA802950392FDF74CFE19
:103A900094F82830002B00F093809DED030A9DEDF3
:103AA000027A60EE007AE7EE077AB1EEE70AB4EE4A
:103AB000400AF1EE10FA40F05281D4ED080A13F0FA
:103AC0008DFBB0EEC00A237BDFED2A1A94ED081AB5
:103AD00002EE103AF0EE610AB8EE422AFDF79AF8CB
:103AE00010EE100AB0EE408A14F0A2FF41EC100B69
:103AF00013F0E6F951EC100B15F09EFA0022237B2F
:103B000032707270B27094F82910421C05469A42C5
:103B1000B4BF1746002700295ED0616800EB40055E
:103B200029440322304611F021FD304625B0BDEC7A
:103B30000A8BBDE8F083B4EEC10AF1EE10FA40F151
:103B4000FB80DFED0CBAB7EE007A01220027F0EE21
:103B50006BCAF0EE6B9AB0EE47BAB0EE47CA1546A4
:103B60009446B846BE4660E69A99193F0000004266
:103B70001D24000000000000B4EEC10AF1EE10FAAE
:103B80001FED04BAB7EE007A4FF001024FF00005C6
:103B9000C0F2C580F0EE4BCAB0EE4BCAF0EE47BAA9
:103BA000F0EE479A17469646A846AC463DE61FED0E
:103BB0000F9A04E75FED119ADBE61FED128AB1E67A
:103BC000D4ED080A9DED020A13F008FBB0EEC00A1E
:103BD00079E75FED187A18E707EE902AB8EEE71A52
:103BE00007EE900AB0EE480AF8EEE70AB7EE002AB0
:103BF0005FED201AFDF70EF8606807EB4703C21867
:103C0000C35C07EE903A537805EB450506EE903A13
:103C1000937807EE103A435D054405EE903A6B78D1
:103C200004EE903AAB78B8EEC77A05EE103A27EE7C
:103C3000007AF8EEE77AF8EEE66AB7EE006A36EE5A
:103C4000406AB8EEC55A66EE806A27EE800AF0EE4A
:103C5000477AF8EEE44AF8EEE55AE6EE057A3046A1
:103C6000E6EE246AA5EE860AFCEEE77ABCEEE67A7A
:103C700017EE902AFCEEC07A17EE101A17EE903A63
:103C80007170B270337025B0BDEC0A8BBDE8F08363
:103C90005FED480A0EA8B0EE600AFDF753FD324909
:103CA0000A784B788DF864208DF865308A78CB7867
:103CB0008DF867301AA804318DF86620FDF734FDC1
:103CC00019AA0EA91DA8FCF7BFFC11AD1DA915A8C6
:103CD000FDF730FC284615A9FDF75CFC02A91DA8DC
:103CE000FDF722FD1DAA294615A8FDF70FF9159924
:103CF000169A179B029119A802A903920493FDF743
:103D000013FDA9E608AB0093304605AB02AA214695
:103D1000A847304625B0BDEC0A8BBDE8F083B0EE75
:103D20004BCAF0EE4B9AF0EE47BAF0EE47CA174690
:103D30009046AC46AE4678E59FED0C7AB7EE00BAF9
:103D400000220125F0EE47CAF0EE479AF0EE4BBA9A
:103D5000B0EE4BCA904696462F46AC4665E5B0EEAF
:103D6000670A13F017FBA8E6C826FF1F0000000033
:103D70002DE9F04F2DED028B04468DB09FEDFD1A1D
:103D8000DFEDFD0A9FEDFD0AFDF7DCFC9FEDFC1A5F
:103D9000DFEDFC0A9FEDFC0A04F10C00FDF7D2FCFC
:103DA0009FEDFA1ADFEDF70A9FEDF70A04F118000C
:103DB000FDF7C8FC9FEDF61ADFEDF60A9FEDF60A57
:103DC00004F12400FDF7BEFC9FEDF41ADFEDF40AC8
:103DD0009FEDF40A04F13000FDF7B4FC9FEDF21AF8
:103DE000DFEDF20A9FEDF20A04F13C00FDF7AAFCB8
:103DF0009FEDF01ADFEDF00A9FEDF00A04F14800A4
:103E0000FDF7A0FC9FEDEE1ADFEDEE0A9FEDEE0A46
:103E100004F15400FDF796FC9FEDEC1ADFEDEC0A7F
:103E20009FEDEC0A04F16000FDF78CFC9FEDEA1AAF
:103E3000DFEDEA0A9FEDEA0A04F16C00FDF782FC6F
:103E40009FEDE81ADFEDE80A9FEDE80A04F178003B
:103E5000FDF778FC9FEDE61ADFEDE60A9FEDE60A36
:103E600004F18400FDF76EFC9FEDE41ADFEDE40A37
:103E70009FEDE40A04F19000FDF764FC9FEDE21A67
:103E8000DFEDE20A9FEDE20A04F19C00FDF75AFC27
:103E90009FEDE01ADFEDE00A9FEDE00A04F1A800D3
:103EA000FDF750FC9FEDDE1ADFEDDE0A9FEDDE0A26
:103EB00004F1B400FDF746FC9FEDDC1ADFEDDC0AEF
:103EC0009FEDDC0A04F1C000FDF73CFC9FEDD71A22
:103ED000DFEDD90A9FEDD90A04F1CC00FDF732FCE1
:103EE0009FEDD71ADFEDD70A9FEDD70A04F1D8006E
:103EF000FDF728FC9FEDD51ADFEDD50A9FEDD50A19
:103F000004F1E400FDF71EFC9FEDD31ADFEDD30AA8
:103F10009FEDD30A04F1F000FDF714FC9FEDD11AD8
:103F2000DFEDD10A9FEDD10A04F1FC00FDF70AFC98
:103F30009FEDCF1ADFEDCF0A9FEDCF0A04F5847015
:103F4000FDF700FC9FEDCD1ADFEDCD0A9FEDCD0A08
:103F500004F58A70FDF7F6FB9FEDCB1ADFEDCB0A77
:103F60009FEDCB0A04F59070FDF7ECFB9FEDC91AAD
:103F7000DFEDC90A9FEDC90A04F59670FDF7E2FB73
:103F80009FEDC71ADFEDC70A9FEDC70A04F59C70C5
:103F9000FDF7D8FB9FEDC51ADFEDC50A9FEDC50AF9
:103FA00004F5A270FDF7CEFB9FEDC31ADFEDC30A47
:103FB0009FEDC30A04F5A870FDF7C4FB9FEDC11A7D
:103FC000DFEDC10A9FEDC10A04F5AE70FDF7BAFB43
:103FD0009FEDBF1ADFEDBF0A9FEDBF0A04F5B47075
:103FE000FDF7B0FB9FEDBD1ADFEDBD0A9FEDBD0AE9
:103FF00004F5BA70FDF7A6FB9FEDBB1ADFEDBB0A17
:104000009FEDBB0A04F5C070FDF79CFB9FEDB91A4C
:10401000DFEDB90A9FEDB90A04F5C670FDF792FB12
:104020009FEDB71ADFEDB70A9FEDB70A04F5CC7024
:10403000FDF788FB9FEDB51ADFEDB50A9FEDB50AD8
:1040400004F5D270FDF77EFB9FEDB31ADFEDB30AE6
:104050009FEDB30A04F5D870FDF774FB9FEDB11A1C
:10406000DFEDB10A9FEDB10A04F5DE70FDF76AFBE2
:104070009FEDAF1ADFEDAF0A9FEDAF0A04F5E470D4
:10408000FDF760FB9FEDAD1ADFEDAD0A9FEDAD0AC8
:1040900004F5EA70FDF756FB9FEDAB1ADFEDAB0AB6
:1040A0009FEDAB0A04F5F070FDF74CFB9FEDA91AEC
:1040B000DFEDA90A9FEDA90A04F5F670FDF742FBB2
:1040C00010269FEDA71ADFEDA70A9FEDA70A04F5BA
:1040D000FC70FDF737FBC4F85C621726C4F8086271
:1040E000C4F870621626C4F80C620826C4F81C6274
:1040F0000726C4F820620926C4F830621926C4F8DD
:104100005062C4F874621226C4F8586211264FF047
:104110000B0B4FF00D0AC4F860621A260A2518200E
:104120001521062205234FF00E084FF00F0C1B2718
:104130004FF0030E4FF00C09C4F82CB2C4F838A2AB
:104140004FF0130B4FF0140AC4F87C620726C4F832
:104150000412C4F86812C4F81022C4F81432C4F867
:104160002432C4F818E2C4F82852C4F84852C4F8FB
:104170003492FDE0F02718424E7100433206F942B6
:1041800000BF1DC332A53DC3D47AE8C200BF1D43A2
:104190006A5EC8429585A74285EB58C1C5C0CA4230
:1041A0001DA9A2423FD79DC1C3C4BB42FE25954273
:1041B000CE88023FA49FBB42E325874296B2AEC0A1
:1041C000C54FA94255F07E4236AB7B41E5C1A542C1
:1041D00045985142E6AE1641AAC20C429FABF64248
:1041E0001283FC426A5E1842575BF5428340F442F8
:1041F000478302423344E642FE45FC42C2973A42BC
:1042000087870143F951E342375A3F4219F3F94294
:104210000594DD42DF6028420ECDF94275C2EB42C3
:1042200033332C42D7520343EA64EE4217B7D1B876
:10423000362B0E4218C6CB42CD0C49425C60D642AA
:10424000D5E78B415396F6419A48AB42C58F8941D9
:104250003C4E3242B35BBC4207DF0142C0ECE1415D
:10426000283E7742DDE4004280F721420C33994238
:10427000D527444222BD1542F98F5642BA0944421D
:1042800005C542425EBA7D42F76475420BB53542C0
:104290006076274278DC7A4208EC6C429CB34B4251
:1042A0006F928A4239741F4274A4A9418A50914284
:1042B0005FA95542719BE4418186B4426DC63C437F
:1042C000C5CF59C246B68D421B2D1843C7BA794196
:1042D000D0849842C55F074365AA5840E5E17C4217
:1042E000C47126434694514160D6CC4273A7204303
:1042F000A4B021C29000CA4292FB2E43D49A3AC283
:10430000DEC2A442F1531B43CC7FB0C022FDB542B4
:10431000D42B2643FAFED4C1982E5D42E75B0743B7
:10432000FE651E425249AB42078F0B436B9A7BC11D
:1043300052E78B42F8232D43D1918CC0EF58BE42F7
:10434000982E16437CE101C2C74B9C423926334369
:10435000CB21C2C12D5283429B160743E18B9F4163
:10436000C2976A423CBD1D439FABCC410000000098
:10437000C4F83C82C4F84482C4F840C2C4F84C0279
:10438000C4F87802C4F85472C4F88072C4F864B2F5
:10439000C4F86CA2C4F88462C4F8B052C4F8CC5219
:1043A0001A25C4F8D0521225C4F8D402C4F8E05239
:1043B000C4F8FC0211250820C4F8E452C4F8000334
:1043C00012251A20C4F8E852C4F804031625042064
:1043D000C4F88C12C4F898221621C4F8A022C4F89C
:1043E000A83208220923C4F8F452C4F8940217250D
:1043F0000020C4F888A2C4F89012C4F89CE2C4F863
:10440000A422C4F8B432C4F8B8C2C4F8BC92C4F848
:10441000C082C4F8C8C2C4F8D872C4F8DCB2C4F808
:10442000ECB2C4F8F0A2C4F8F852C4F8AC02C4F874
:10443000C402C4F808631C26C4F834632926C4F8EF
:104440002063C4F880632026C4F82C632A26C4F8AD
:1044500048631F261D23232222214FF0280E2627E2
:104460004FF01E084FF021094FF0250C4FF0240AA1
:104470004FF0270BC4F84C632026C4F80CE3C4F8B3
:1044800030E3C4F870E3C4F81023C4F82423C4F85C
:104490006023C4F88823C4F81413C4F84013C4F884
:1044A0005413C4F87413C4F81833C4F84433C4F86C
:1044B0005033C4F87C33C4F81C83C4F85C83C4F85C
:1044C0002893C4F83893C4F83C73C4F86C73C4F8E8
:1044D00058C3C4F868C3C4F878A3C4F864B3C4F874
:1044E00084B3C4F88C631F26C4F8A433C4F8B03373
:1044F000C4F8B4334FF00003C4F89C6384F8EC3381
:104500002A262B2304F50175C4F89893C4F8A073E8
:10451000C4F8A8A3C4F8AC63C4F8BC83C4F8E473BB
:104520004FF41860C4F89023C4F894E3C4F8B813A7
:10453000C4F8C013C4F8C423C4F8C8C3C4F8CC4337
:10454000C4F8E033C4F8D45311F06CF94FF000090B
:10455000804604F5737600F1180700F6981A38467D
:10456000FDF7DCF807F10C00FDF7D8F807F11800AB
:10457000FDF7D4F8403707F81C9CBA45EFD1C4F8D2
:10458000D083404695E80E000C3501EB410102EB6B
:10459000420203EB430304EB810104EB820204EBD0
:1045A0008303AE4280E80E0000F14000EAD15FEDE7
:1045B000911ACE4BC4F8F033802384F8F43384F896
:1045C000F53384F8F63384F8F73384F8F83384F855
:1045D000F933B0EE611AF0EE610AB7EE000A04F5A5
:1045E0007F70FCF73FFBDFEDC21AB7EE000AB0EEBA
:1045F000611AF0EE610A04F20C40FCF733FB9FED08
:10460000BC1A04F21C40F0EE410AB0EE410AFDF77C
:1046100099F8B7EE001AF0EE410AB0EE410A04F53F
:104620008560FDF78FF89FEDB21A04F23440F0EE8A
:10463000410AB0EE410AFDF785F89FEDAD1A04F589
:104640008860F0EE410AB0EE410AFDF77BF80122E6
:1046500004F57C73C4F84C6484F85824C4F85434CA
:10466000242011F0DDF8D4F8E073D4F8E42382615B
:10467000B7F12A6FD4F8D43383604FF000020546B7
:1046800080F8202047619ABF07EB470080004FF079
:10469000FF3011F0C7F87E1E804647B10746384606
:1046A000013EFDF73BF8721C07F10C07F7D1AE692C
:1046B000C5F80080B6F1FE7F41F268824FF0FF300E
:1046C00011F0B0F8771E8146AEB100F118064FF038
:1046D00000083046FDF722F806F10C00FDF71EF841
:1046E000013F06F11800FDF719F87B1C86F82480BD
:1046F00006F14006EDD194F8EC33C5F8049043B1CF
:104700000121D4F8DC23D4F8D83385F820102A61AD
:10471000EB606B69002B1ADD0027B846D4F8CC1388
:104720002E6839443E4409A8FCF7FEFF0B9B09990B
:104730000A9AB36031607260314606A8FCF7F4FF54
:104740006B6908F10108434507F10C07E6DCAF6926
:10475000002F3FDD94F8ECC3D5F808E06B682E68B5
:1047600022467046644603EB87174FF001089446D3
:10477000D0F800904168826809EB490901EB4101DA
:1047800002EB420206EB820206EB890906EB81018D
:104790009A60C3F80090CEEB000259600C30ACB1C7
:1047A000D5F80C90296959F802A04A4401EBCA0ACD
:1047B000D2F808B0D2F80490C3F80CA001EBC902FB
:1047C00001EBCB011A61596183F83C8040339F4271
:1047D000CED16446474EC4F850540FCE04F25C4527
:1047E0000FC50FCE0FC50FCE0FC596E80700A6F177
:1047F000300785E807000FCF04F593650FC50FCF8D
:104800000FC50FCF0FC596E80700A6F1300785E862
:1048100007000FCF04F2D4450FC50FCF0FC50FCF40
:104820000FC596E80700A6F1300785E807000FCF0F
:1048300004F5A2650FC50FCF0FC50FCF0FC596E8C2
:104840000700A6F1300785E807000FCF04F24C55AA
:104850000FC50FCF0FC50FCF0FC596E80700A6F104
:10486000300785E807000FCF04F5B1650FC50FCFFE
:104870000FC50FCF0FC596E80700A6F1300785E8F2
:1048800007000FCF04F2C4550FC50FCF0FC50FCFD0
:104890000FC596E8070004F5C06785E8070004F235
:1048A0004C6506F10C0138464C2210F05FFE04F214
:1048B000946806F1580128464822019510F056FEEA
:1048C00004F2DC6506F15801482240469FED088A53
:1048D000CDF8088010F04AFE9FED071ADFED070AB9
:1048E0009FED070A05952846DCE000BFA49B010068
:1048F00000000000289C01007958F03F6ABC96C077
:104900005839A4BF30BB4F400DE0853F865A134055
:1049100017D9BA406ADE4DC02F6E8D40287E6CBF1D
:104920003D9BF53E9B555FBF583934BD986EA2BF85
:10493000C898BB3FFDF625403FC6FE406EA3B93F79
:104940007424DF3F8638463FF46C22C0BADA064151
:104950005BD394C07E1D78BEF2D2853F1D38DF3F09
:104960000C93C540705FA3C0E336D23F58CA1041D4
:10497000D509E83F71AC7F4043AD2940E5D08ABFFF
:104980005BB13FBC711B23C1FDF61540986EA0C101
:10499000287E28C06210F8BE190402C02C6519BF19
:1049A0004BC827BFD04402C10000544004D69FC169
:1049B0001973B7BEE71D9FBF57ECD7BFE2E9ED3FC4
:1049C0003D0A82C1D95F1AC0B98DA63E22FD76BFCD
:1049D0000C9331C02C6582C1863876BF80B7AAC0DF
:1049E0006822843FC7BA04409C2297C10E4F0F3FF4
:1049F00017B751BE827346BF485084C0B7D180BE3E
:104A00002D4328C03EE889BFD20090C0363CBD3E51
:104A1000DB8A13C1B00377BF67D5673F0C026FC055
:104A200002BC45BF6688633F4D84A5C07C6182BFE0
:104A3000849E0C415227883F485088C019E2B8BE76
:104A4000F7E4213F128334C1C1CA41C036ABB6BFBF
:104A5000787A35BFA1F88D403FC670C1AA608CBF7F
:104A6000A245B6BD840DAFBEA2B46F405396F13FD0
:104A7000333313C02D436840287E41C176716FC027
:104A800089D272C0FD8786C09C336E404CA68BC114
:104A9000C976DEBE470370C027A039BFA8354DC018
:104AA0006EA3B9BFFCF74EFE1FED5F1A5FED6B0AF8
:104AB0001FED5E0A04F5DD60FCF744FEB0EE480A27
:104AC0001FED6F1A5FED6F0A04F2F460FCF73AFE17
:104AD0001FED711A5FED710A1FED680A04F5E060C1
:104AE000FCF730FEB0EE481A5FED750A1FED750A4F
:104AF00004F20C70FCF726FEB0EE481A5FED780A5F
:104B00001FED780A04F5E360FCF71CFE1FED781A30
:104B10005FED7B0A1FED7B0A04F22470FCF712FEA6
:104B2000B0EE480A1FED7E1A5FED7E0A04F5E660DE
:104B3000FCF708FEB0EE481A5FED810A1FED810A0E
:104B400004F23C70FCF7FEFD1FED831A5FED830A53
:104B50001FED830A04F5E960FCF7F4FD1FED851AEB
:104B60005FED850A1FED850A04F25470FCF7EAFD3B
:104B7000B0EE480A1FED881A5FED880A04F5EC6074
:104B8000FCF7E0FD1FED8A1A5FED8A0A1FED8A0A25
:104B900004F26C70FCF7D6FDB0EE481A5FED8D0A9A
:104BA0001FED8D0A04F5EF60FCF7CCFD04F5F2650E
:104BB0001FED901A5FED900A1FED900A04F28470C9
:104BC000FCF7C0FD28461FED921A5FED920A1FED1B
:104BD000830A0495FCF7B6FDB0EE481A5FED8F0A24
:104BE0001FED880A04F29C70FCF7ACFD1FED9A1AC9
:104BF0005FED9A0A1FED9A0A04F5F560FCF7A2FD35
:104C00001FED9C1A5FED9C0A1FED9C0A04F2B47024
:104C1000FCF798FDB0EE481A5FED9E0A1FED970A6B
:104C200004F5F860FCF78EFD1FEDA31A5FEDA30AF3
:104C30001FED9C0A04F2CC70FCF784FDB0EE481A1C
:104C40005FEDA80A1FEDA10A04F5FB60FCF77AFDF1
:104C5000B0EE481A5FEDAD0A1FEDA60A04F2E4704B
:104C6000FCF770FDB0EE481A5FEDB20A1FEDAB0A1B
:104C700004F5FE60FCF766FD1FEDB51A5FEDB50AA1
:104C80001FEDB00A04F2FC70FCF75CFD1FEDB81AD2
:104C90005FEDB80A1FEDB80A04F60800FCF752FDF4
:104CA0001FEDBA1A5FEDBA0A1FEDBA0A04F6140036
:104CB000FCF748FD1FEDBC1A5FEDBC0A1FEDBC0AF6
:104CC00004F50260FCF73EFDB0EE481A5FEDBF0A46
:104CD0001FEDBF0A04F62C00FCF734FD04F6440572
:104CE000B0EE481A5FEDC30A1FEDC30A04F63800A0
:104CF000FCF728FD28461FEDC51A5FEDC50A1FED1C
:104D0000C50A0395FCF71EFDB0EE481A5FEDC80A10
:104D10001FEDC80A04F50560FCF714FDB0EE481A53
:104D20005FEDCB0A1FEDCB0A04F65C00FCF70AFD31
:104D3000B0EE481A5FEDCE0A1FEDCE0A04F6680009
:104D4000FCF700FDB0EE481A5FEDD10A1FEDD10A65
:104D500004F67400FCF7F6FCB0EE481A5FEDD40AD6
:104D60001FEDD40A04F50860FCF7ECFC1FEDD61A21
:104D70005FEDD60A1FEDD60A04F68C00FCF7E2FCC4
:104D80001FEDD81A5FEDD80A1FEDD80A04F6980077
:104D9000FCF7D8FCB0EE481A5FEDDB0A1FEDDB0A2A
:104DA00004F6A400FCF7CEFCB0EE481A5FEDDE0A74
:104DB0001FEDDE0A04F50B60FCF7C4FC1FEDE01AE2
:104DC0005FEDE00A1FEDE00A04F6BC00FCF7BAFC58
:104DD000B0EE481A5FEDE30A1FEDE30A04F6C800DF
:104DE000FCF7B0FC1FEDE51A5FEDE50A1FEDE50AE3
:104DF00004F6D400FCF7A6FCB0EE481A5FEDE80A12
:104E00001FEDE80A04F50E60FCF79CFC04F6F80BB5
:104E1000B0EE481A5FEDEC0A1FEDEC0A04F6EC0068
:104E2000FCF790FCB0EE481AB0EE480A58465FED29
:104E3000F00AFCF787FC1FEDF11A5FEDF10A1FED98
:104E4000F10A04F60410FCF77DFCB0EE481A5FEDA1
:104E5000F40A1FEDF40A04F51160FCF773FC1FED72
:104E6000F61A5FEDF60A1FEDF60A04F61C10FCF7C1
:104E700069FCB0EE481A5FEDF90A1FEDF90A04F675
:104E80002810FCF75FFCB0EE481A5FEDFC0A1FED3E
:104E9000FC0A04F63410FCF755FC9FEDFD1ADFED1B
:104EA000FD0A9FEDFD0A04F51460FCF74BFC9FED35
:104EB000FB1ADFEDFB0A9FEDFB0A04F64C10FCF732
:104EC00041FC9FEDF91ADFEDF90A9FEDF90A04F6AE
:104ED0005810FCF737FCB0EE481ADFEDF60A9FEDEC
:104EE000F60A04F66410FCF72DFC9FEDF41ADFEDD2
:104EF000F40A9FEDF40A04F51760FCF723FCB0EE0A
:104F0000481ADFEDF10A9FEDF10A04F67C10FCF778
:104F100019FC9FEDEF1ADFEDEF0A9FEDEF0A04F6A3
:104F20008810FCF70FFCB0EE481ADFEDEC0A9FED9D
:104F3000EC0A04F69410FCF705FC04F6AC1A9FED9D
:104F4000E91ADFEDE90A9FEDE90A04F51A60FCF7BA
:104F5000F9FB50469FEDE61ADFEDE60A9FEDE60A03
:104F6000FCF7F0FB9FEDE51ADFEDE50A9FEDE50AA2
:104F700004F6B810FCF7E6FB9FEDE31ADFEDE30A59
:104F80009FEDE30A04F6C410FCF7DCFB9FEDE11A89
:104F9000DFEDE10A9FEDE10A04F51D60FCF7D2FBAD
:104FA0009FEDDF1ADFEDDF0A9FEDDF0A04F6DC106C
:104FB000FCF7C8FB9FEDDD1ADFEDDD0A9FEDDD0A92
:104FC00004F6E810FCF7BEFB9FEDDB1ADFEDDB0A11
:104FD0009FEDDB0A04F6F410FCF7B4FB9FEDD91A41
:104FE000DFEDD90A9FEDD90A04F52060FCF7AAFB92
:104FF0009FEDD71ADFEDD70A9FEDD70A04F60C20F4
:10500000FCF7A0FB9FEDD51ADFEDD50A9FEDD50A81
:1050100004F61820FCF796FB9FEDD31ADFEDD30AB8
:105020009FEDD30A04F62420FCF78CFB9FEDD11AE8
:10503000DFEDD10A9FEDD10A04F52360FCF782FB76
:105040009FEDCF1ADFEDCF0A9FEDCF0A04F63C208B
:10505000FCF778FBB0EE481AB0EE480ADFEDCB0A59
:1050600004F64820FCF76EFB04F526699FEDC81A8C
:10507000DFEDC80A9FEDC80A04F65420FCF762FB76
:1050800048469FEDC61ADFEDC60A9FEDC60AFCF73B
:1050900059FBB0EE481ADFEDC40A9FEDC20A04F6D0
:1050A0006C20FCF74FFBB0EE481ADFEDBF0A9FED16
:1050B000BD0A04F67820FCF745FB9FEDBC1ADFED36
:1050C000BC0A9FEDB80A04F68420FCF73BFBB0EE67
:1050D000481ADFEDB50A9FEDB30A04F52960FCF725
:1050E00031FBB0EE481ADFEDB00A9FEDAE0A04F6D0
:1050F0009C20FCF727FBB0EE481ADFEDAB0A9FEDD2
:10510000A90A04F6A820FCF71DFBB0EE481ADFED53
:10511000A60A9FEDA40A04F6B420FCF713FBB0EE38
:10512000481ADFEDA10A9FED9F0A04F52C60FCF7F9
:1051300009FBB0EE481ADFED9C0A9FED9A0A04F6CF
:10514000CC20FCF7FFFA9FED9B1ADFED990A9FED4B
:105150009A0A04F6D820FCF7F5FAB0EE481ADFED0B
:10516000920A9FED900A04F6E420FCF7EBFA9FED1B
:10517000931ADFED930A9FED8B0A04F52F60FCF77D
:10518000E1FAB0EE481ADFED880A9FED860A04F6D0
:10519000FC20FCF7D7FA04F61438B0EE481ADFED1D
:1051A000820A9FED800A04F60830FCF7CBFA4046ED
:1051B0009FEDA11ADFEDA10A9FEDA10AFCF7C2FA4B
:1051C0009FEDA01ADFED7F0A9FED7F0A04F53260A4
:1051D000FCF7B8FA9FEDCE1ADFED9E0A9FED9C0A10
:1051E00004F62C30FCF7AEFA9FEDC51ADFED770A16
:1051F0009FED770A04F63830FCF7A4FA9FEDC51A44
:10520000DFED980A9FED960A04F64430FCF79AFA0F
:105210009FEDA71ADFED950A9FED930A04F535601F
:10522000FCF790FA9FEDA11ADFED6A0A9FED6A0A7A
:1052300004F65C30FCF786FA9FEDB01ADFED670AE2
:105240009FED670A04F66830FCF77CFA9FEDA71A19
:10525000DFED640A9FED640A04F67430FCF772FA1D
:105260009FED9D1ADFED610A9FED610A04F538603C
:10527000FCF768FA9FED941ADFED5E0A9FED5E0A77
:1052800004F68C30FCF75EFA9FED8E1AACE100BF9D
:10529000E02DA83F0A68A4C073D7CABF9E5E293F0D
:1052A000D6C5A3C0C3D393BF8D28853FDAAC13C145
:1052B000CE1909C00091A4C0AA8255C08B6C97403A
:1052C000C9E520C15D6DE5BE0F9C83C06EA3B9BF6B
:1052D000D578C1BF24979FC09FCD8ABF5917C7C03B
:1052E00004E7ECBF917E7B3E848D8AC140A407C059
:1052F000849E9D3F098ADFBE7CF2B0BFECC0693F4F
:10530000C0EC3EBFD712B2BE07CE993E7FFB2A3F0C
:10531000713D8ABD8B6CB73FAE4701C0A91350BE2B
:105320000BB5A63DB7D1A03FCE88523EC217163F5F
:10533000363C2D3F9FCD4ABFCC7F883F956590BFBF
:10534000B7D1A0BED5E77A3F812612BF6F1243BF07
:10535000FA7E2A3E8F53343E10E9073F6DC5DE3E8C
:10536000FBCBEE3D41F1E3BD45D8F03F371A18C005
:105370005D6D25BF20D2EF3E1D38073F7DAE06BFD5
:10538000F2D2D53F6688FBBF5BD35CBF6688FB3F2C
:10539000287E2C3F05C54FBFE7FBE93E3F57E3BFE3
:1053A00097FF04C05839A4BFC0ECA4C0B30C05C01B
:1053B000029AA8BE29EDCDBF12145BC076E0ACBF47
:1053C0007DD037C046B61FC19BE6BDBF090AA0C14C
:1053D000C05B60BE7DAE9CC03411A6BFFCA9BFC03F
:1053E00074249FC0363CAFC08CB95F400681124127
:1053F000492E9F3F1BAF99C1C898A3BF280F87C1F3
:10540000DA1BA0C06C0955409EEFA3C094F687C17B
:105410007AA56C4008AC5CC07CE19BC1C3D37FC063
:10542000371ABCC1AF9409C0AB3E11C1E3362ABFE5
:10543000B07220C0EC5126C1530545417B1481C197
:10544000849E2D3F65191241302A0BC1105889BF27
:105450005F0742C0F163D04033C495C15DFE433E57
:105460005E4B58BFC4421D3FEE5A0AC18941B0BFCE
:10547000EC51DAC0BDE3F4BFE258D9C0865AA7C0E8
:10548000553092BF9C339C40FB3AE240F38E133F71
:1054900004569BC13EE8A1C005C5FFBFE6AEDD4096
:1054A000325591C17D3FADC0A9A4854162A12A4179
:1054B0006B9ABB4043ADA54085EB1EC11895BE401D
:1054C000984CCFC0B1E19540948796418A9FB6C170
:1054D0001A409EC196212642EF388B4060E5CCC130
:1054E00052B8B6C165D94442849ED7404625D53FBF
:1054F000BEC1B1C1DB8A11C1579B254242CF1C41BD
:10550000DC46654139B4B3C1006F5EC11AC02042A8
:1055100089414040696F503FA178B8C1C7BA7CC08B
:10552000973F1E424BC8B7C1B4C809C19FAB0442E4
:10553000C1A839C1061244C03E796440AED89F3F2D
:10554000F1F4CEC0D8F0B4C038F872C0228E85C055
:1055500043ADB940AF25214166662DC10BB546C0AC
:1055600005341C41B00311C1006FFD40BBA7A14130
:105570003B7092C13480B73DA3920C41ACADF0C0FA
:10558000BC74933B8B6C0BC09BE645C05A6477415F
:1055900098EE81C1CBA1D5BF0A68CABFAED82B4057
:1055A000C8984D4185EB05C0652AAE41AD7AA3C1CF
:1055B0008C4A17C14703B041C06C8FC1591785C0D1
:1055C000C0ECE94179E9AAC19C3394C0FBDCF2410B
:1055D0006B1AA5C1A9A410423277CD40ECC081BF9F
:1055E00057EC2BC0136103405FED540A1FED560AC0
:1055F00004F69830FCF7A6F81FED551A5FED810A06
:105600001FED810A04F6A430FCF79CF8B0EE481AAE
:105610005FED840A1FED840A04F53B60FCF792F805
:1056200004F6C8351FED501A5FED880A1FED880A91
:1056300004F6BC30FCF786F8B0EE480A28461FEDA9
:105640008B1A5FED8B0A0095FCF77CF8B0EE480AE8
:105650001FED8E1A5FED8E0A04F6D430FCF772F857
:105660001FED901A5FED900A1FED900A04F53E6061
:10567000FCF768F8B0EE480A1FED931A5FED930A45
:1056800004F6EC30FCF75EF81FED951A5FED950A15
:105690001FED950A04F6F830FCF754F81FED971A41
:1056A0005FED970A1FED970A04F60440FCF74AF8ED
:1056B0001FED691A5FED990A1FED9B0A04F5416021
:1056C000FCF740F81FED721A5FED9D0A1FED9D0A71
:1056D00004F61C40FCF736F81FED721A5FED9F0AC6
:1056E0001FEDA10A04F62840FCF72CF81FED901AD4
:1056F0005FEDA20A1FEDA40A04F63440FCF722F87D
:105700001FED961A5FEDA60A1FEDA60A04F5446088
:10571000FCF718F81FED871A5FEDA90A1FEDA90A1B
:1057200004F64C40FCF70EF81FED901A5FEDAC0A42
:105730001FEDAC0A04F65840FCF704F81FED9A1A66
:105740005FEDAF0A1FEDAF0A04F66440FBF7FAFF06
:105750001FEDA31A5FEDB20A1FEDB20A04F5476010
:10576000FBF7F0FF1FEDA91A5FEDB40A1FEDB60AB3
:1057700004F67C40FBF7E6FF1FEDB51A5FEDB80AB3
:105780001FEDB80A04F68840FBF7DCFFB0EE481ABC
:105790005FEDB80A1FEDB60A04F69440FBF7D2FF9E
:1057A00004F6AC461FEDB01A5FEDBD0A1FEDBD0A51
:1057B00004F54A60FBF7C6FF30461FEDBC1A5FEDEB
:1057C000BC0A1FEDBC0AFBF7BDFF1FEDBC1A5FED65
:1057D000BC0A1FEDBC0A04F6B840FBF7B3FF1FED8F
:1057E000BC1A5FEDBC0A1FEDBC0A04F6C440FBF70F
:1057F000A9FF1FEDBC1A5FEDBC0A1FEDBC0A04F542
:105800004D60FBF79FFF1FEDBC1A5FEDBC0A1FED5B
:10581000BC0A04F6DC40FBF795FF1FEDBE1A5FEDF6
:10582000BE0A1FEDBE0A04F6E840FBF78BFFB0EEA0
:10583000481A5FEDC10A1FEDC10A04F6F440FBF7F8
:1058400081FFB0EE481A5FEDC40A1FEDC40A04F5EB
:105850005060FBF777FF1FEDC61A5FEDC60A1FED1C
:10586000C60A04F60C50FBF76DFF1FEDC81A5FED7A
:10587000C80A1FEDC80A04F61850FBF763FF1FEDB6
:10588000CA1A5FEDCA0A1FEDCA0A04F62450FBF7D4
:1058900059FF1FEDCC1A5FEDCC0A1FEDCC0A04F5C1
:1058A0005360FBF74FFF1FEDCE1A5FEDCC0A1FEDE3
:1058B000C90A04F63C50FBF745FF1FEDCB1A5FED1C
:1058C000C70A1FEDC70A04F64850FBF73BFF1FED60
:1058D000C91A5FEDC90A1FEDC90A04F65450FBF757
:1058E00031FF1FEDCB1A5FEDCB0A1FEDCB0A04F59C
:1058F0005660FBF727FF1FEDCD1A5FEDCD0A1FEDB8
:10590000CD0A04F66C50FBF71DFF04F68455F0EE4B
:10591000480A1FEDD11A1FEDD10A04F67850FBF7A3
:1059200011FFB0EE481A28465FEDD50A1FEDD30AE5
:10593000FBF708FF1FEDD71A5FEDD70A1FEDD70A57
:1059400004F55960FBF7FEFE1FEDF61A5FEDF60A4F
:105950001FEDDC0A04F69C50FBF7F4FE1FEDF81A6D
:105960005FEDF80A1FEDF80A04F6A850FBF7EAFE0F
:105970001FEDF61A5FEDF60A1FEDE60A04F6B450C5
:10598000FBF7E0FE1FEDFD1A5FEDFD0A9FED810ABA
:1059900004F55C60FBF7D6FEB0EE481ADFED7E0A38
:1059A0009FED7E0A04F6CC50FBF7CCFEB0EE481A11
:1059B000DFED7B0A9FED7B0A04F6D850FBF7C2FEB1
:1059C0009FED791ADFED790A9FED790A04F6E4502C
:1059D000FBF7B8FEB0EE481ADFED760A9FED760AC7
:1059E00004F55F60FBF7AEFE9FED741ADFED740AFD
:1059F0009FED740A04F6FC50FBF7A4FE9FED721AAB
:105A0000DFED720A9FED720A04F60860FBF79AFE5A
:105A10009FED701ADFED700A9FED700A04F61460B6
:105A2000FBF790FEB0EE481ADFED6D0A9FED6D0AB0
:105A300004F56260FBF786FE9FED6B1ADFED6B0AE3
:105A40009FED6B0A04F62C60FBF77CFE9FED691A54
:105A5000DFED690A9FED690A04F63860FBF772FE14
:105A60009FED671ADFED670A9FED670A04F6446051
:105A7000FBF768FE9FED651ADFED650A9FED650A8D
:105A800004F56560FBF75EFE0599049A039B04F636
:105A90005C6E8EED038A0F20C4F8641E04F25C4E27
:105AA00004F66C61C4F85C0EC4F860EE81ED038A04
:105AB00004F5936E04F67C61C4F86C0EC4F8742E81
:105AC000C4F870EE04F2D44281ED038A04F68C6EC1
:105AD000C4F8843E04F5A26104F69C63C4F87C0E0D
