:1000000000000320D101000011060100C905010014
:10001000C9050100C9050100C9050100C9050100A4
:10002000C9050100C9050100C9050100110601004B
:1000300011060100C90501006D19010071190100C7
:100040001106010011060100110601001106010050
:100050001106010011060100110601001106010040
:100060001106010011060100110601001106010030
:100070001106010011060100110601001106010020
:100080001106010011060100110601001106010010
:100090001106010011060100110601001106010000
:1000A000D11C0100DD1C0100110601001106010038
:1000B00011060100110601001106010011060100E0
:1000C00011060100110601001106010011060100D0
:1000D00011060100110601001106010011060100C0
:1000E00011060100110601001106010011060100B0
:1000F00011060100110601001106010011060100A0
:10010000110601001106010011060100110601008F
:10011000110601007D0B010011060100110601000E
:10012000110601001106010011060100110601006F
:10013000110601001106010011060100110601005F
:10014000110601001106010011060100110601004F
:10015000110601001106010011060100110601003F
:100160001106010011060100E91C01001106010041
:10017000110601001106010011060100110601001F
:10018000110601001106010011060100110601000F
:1001900011060100110601001106010011060100FF
:1001A00011060100110601001106010011060100EF
:1001B00011060100110601001106010011060100DF
:1001C00011060100110601001106010011060100CF
:1001D0005C4B4CF2205210B51A804DF628121A8052
:1001E00000BF00BF10F018FA574B4FF030621A6092
:1001F000564A9A60564ADA60564B4FF470021A60BB
:10020000554B564A1A60564B1A78110703D51A787F
:1002100042F008021A70534B5349AA221A70534AEB
:10022000534B8B4204D252F8040F43F8040BF8E707
:10023000504B514900228B4202D243F8042BFAE77B
:100240004E494F4A002352F8230041F8230001335E
:10025000742BF8D14B4B4C4A802103F8011B93427D
:10026000FBD14A4B454A1A60494B8A221A70A3F5C2
:10027000805324225A70A0221A709A799207FCD5D2
:100280009A79D406FCD4434A937903F00C03082BE3
:10029000FAD1414B60221A7002331A78802AFCD1BD
:1002A0003C4B00221A7150225A719A799006FCD563
:1002B0009979384A4906FBD5384B394919600021EC
:1002C000596020231370937903F00C030C2BFAD19F
:1002D000344B354A1A60354A354C136813F4807331
:1002E00003D123604FF4A8531360324B324A1A6093
:1002F00000225A60072243F8042C304AC3F80C2D20
:1003000062B610F0CDFA2368DA0705D52C4810F054
:100310004BFA2C4B2C4A1A602C4B1B785B0609D5E8
:10032000284C294B22689A4204D1254810F03CFA07
:100330000023236013F096FA10F074F910F068F8B7
:10034000FEE700BF0E20054030800440823F0400DD
:100350000100002B88ED00E0002008E0030000858C
:1003600002D0074000E007407C23FF1FAC62010081
:100370003019FF1F7C23FF1F58CCFF1F0014FF1FE5
:100380000000000000E400E064E400E008ED00E0AC
:10039000005006400040064001E007404480044011
:1003A0000000070304800440C010070010D0034081
:1003B00014D0034014E000E0FFE703000000202019
:1003C000240D41621CE00340A5C3945A00F007408D
:1003D000FFFFFFFFFFFFFFFFFFFFFFFFFFFFFFFF2D
:1003E000FFFFFFFFFFFFFFFFFFFFFFFFFFFFFFFF1D
:1003F000FFFFFFFFFFFFFFFFFFFFFFFFFFFFFFFF0D
:10040000FFFFFFFFFFFFFFFFFFFFFFFFDEF9FFFF23
:1004100010B5054C237833B9044B13B10448AFF33E
:1004200000800123237010BD7C23FF1F000000000B
:10043000A8620100084B10B51BB108490848AFF38A
:1004400000800848036803B910BD074B002BFBD0A0
:10045000BDE81040184700BF000000008023FF1FC8
:10046000A86201007C23FF1F0000000070B5044655
:100470008AB015460E4601F055F804F10C0000F064
:1004800003FA314607A801F053F80799089A099B27
:1004900021606260A360214601A801F049F8287834
:1004A0006978AA78EB78E37320736173A273291DCE
:1004B00007A801F03DF80799089A099B216162613C
:1004C000A36104F1100104A801F032F820460AB03B
:1004D00070BD00BF70B52DED028B9FEDD18A86B047
:1004E00003AC0025B0EE480AB0EE001AF7EE000AA1
:1004F000204601F02BF82A46294601230194009555
:10050000C84800F0E7F9B0EE480AB0EE001AF7EE7E
:10051000000A204601F01AF82B462A462946019483
:100520000095C14800F0D6F9B0EE480AB7EE001ABF
:10053000F0EE000A204601F009F8012329461A4688
:1005400001940095B94800F0C5F9B0EE480AB7EE3D
:10055000001AF0EE000A204600F0F8FF2B4629466C
:10056000012201940095B24800F0B4F9B0EE481AA7
:10057000F0EE000AB7EE000A204600F0E7FF012384
:100580002A46194601940095AA4800F0A3F9B0EE56
:10059000481AF0EE000AB7EE000A204600F0D6FF37
:1005A0002B462A46012101940095A34800F092F9B8
:1005B000F0EE480AB0EE001AB7EE000A204600F04E
:1005C000C5FF01231A461946019400959B4800F087
:1005D00081F9F0EE480AB0EE001AB7EE000A2046A4
:1005E00000F0B4FF01222B46114601940095944877
:1005F00000F070F9F0EE480AB7EE001AB0EE000A0B
:10060000204600F0A3FF2A46012302210194009511
:100610008C4800F05FF9F0EE480AB7EE001AB0EE31
:10062000000A204600F092FF2B462A460221019440
:100630000095854800F04EF9B0EE481AF7EE000A32
:10064000B0EE000A204600F081FF01231A46022185
:10065000019400957D4800F03DF9B0EE481AF7EEA0
:10066000000AB0EE000A204600F070FF2B4601227F
:100670000221019400957648012600F02BF9B0EE96
:10068000480AB0EE001AF7EE000A204600F05EFFBE
:100690002A4629463346019400966E4800F01AF91E
:1006A000B0EE480AB0EE001AF7EE000A204600F05D
:1006B0004DFF2B462A46294601940096664800F0D5
:1006C00009F9B0EE480AB7EE001AF0EE000A20462B
:1006D00000F03CFF334632462946019400965F48BD
:1006E00000F0F8F8B0EE480AB7EE001AF0EE000A93
:1006F000204600F02BFF2B463246294601940096F7
:10070000574800F0E7F8B0EE481AF0EE000AB7EEEE
:10071000000A204600F01AFF33462A46314601946B
:100720000096504800F0D6F8B0EE481AF0EE000AF5
:10073000B7EE000A204600F009FF2B462A46314654
:1007400001940096484800F0C5F8F0EE480AB0EE73
:10075000001AB7EE000A204600F0F8FE3346324693
:10076000314601940096414800F0B4F8F0EE480A92
:10077000B0EE001AB7EE000A204600F0E7FE2B4666
:100780003246314601940096394800F0A3F8F0EE65
:10079000480AB7EE001AB0EE000A204600F0D6FE76
:1007A00033462A46022101940096324800F092F81E
:1007B000F0EE480AB7EE001AB0EE000A204600F04C
:1007C000C5FE2B462A460221019400962A4800F0D5
:1007D00081F8B0EE481AF7EE000AB0EE000A2046A3
:1007E00000F0B4FE334632460221019400962348BD
:1007F00000F070F8B0EE481AF7EE000AB0EE000A0A
:10080000204600F0A3FE019400962B4632460221BA
:100810001B4800F05FF806B0BDEC028B70BD00BF56
:10082000000000003824FF1FC824FF1F7824FF1F8A
:10083000D824FF1FA823FF1FF823FF1F5824FF1FE2
:10084000A824FF1FF824FF1F9824FF1FC823FF1FA1
:10085000B823FF1F9823FF1F6824FF1FE823FF1FF3
:100860008824FF1F4824FF1F0824FF1FE824FF1FC0
:100870000825FF1F2824FF1FD823FF1F1824FF1F50
:10088000B824FF1FFFF726BE30B5051D044687B00C
:10089000284600F047FE00230122A27023706370F7
:1008A000E370B0EE001AF7EE000A9FED090A684601
:1008B00000F04CFE0099019A029B6160A2602946FB
:1008C000E36003A800F034FE204607B030BD00BF4F
:1008D000000000002DE9F04387B00446051D904656
:1008E0001F4689469DF83860284600F01BFE0F9988
:1008F00084F8009084F80180A770E670684600F0E4
:1009000017FE0099019A029B6160A2602946E3608C
:1009100003A800F00DFE204607B0BDE8F08300BF3D
:10092000904203D8884238BF084670471046704747
:10093000B4EEC10AF1EE10FA07DCB4EE600AF1EE93
:1009400010FA48BFB0EE600A7047B0EE410A704737
:10095000DFED027A20EE270A704700BF35FA8E3CA1
:1009600070EE600AF0EEE00AF4EEC10AF1EE10FA61
:100970004CBF01200020704710EE103A5B1003F1CD
:10098000FD5303F5DA1300EE103A704730EE600ABB
:1009900032EE612A31EE601A20EE022A82EE010A5E
:1009A00030EE210A704700BF00224FF07E514260B6
:1009B0008260C2600160704770B400224FF07E54C4
:1009C000426082600460C2600E684D688C68CA68CC
:1009D000C26006604560846070BC704780ED000AAC
:1009E000C0ED010A80ED021AC0ED031A704700BF86
:1009F000F0B5D2ED006A92ED017AD2ED027ACD68BF
:100A00004F688E680C680460FDEEE66ABDEEC77A3A
:100A1000FDEEE77A85B016EE90EA17EE102A17EE93
:100A2000903A04A901EB8E010DF1100E0EEB82023B
:100A30000EEB830341F80C7C42F80C6C43F80C5C21
:100A4000019D0299039A45608160C26005B0F0BDC6
:100A5000D1ED016A91ED027AD1ED037A0A68026064
:100A6000F1EE666AB1EE477AF1EE677AC0ED016A9F
:100A700080ED027AC0ED037A704700BF90ED010A65
:100A8000D0ED006A90ED027AD0ED037A20EE000AF4
:100A9000A6EEA60AA7EE070AA7EEA70AFFF76CBF05
:100AA00038B5044608460D46FFF7E8FFF7EE007A32
:100AB00087EE800A2046D5ED006A95ED017AD5EDE6
:100AC000027A95ED036A66EE806A20EE077A60EEA0
:100AD000277A20EE060AC4ED006A84ED017AC4ED9F
:100AE000027A84ED030A38BDD0ED007A91ED007AE8
:100AF00077EEC77AF0EEE77AF4EEC07AF1EE10FA0C
:100B000029D5D0ED017A91ED017A77EEC77AF0EE32
:100B1000E77AB4EEE70AF1EE10FA1CDDD0ED027AC6
:100B200091ED027A77EEC77AF0EEE77AB4EEE70A53
:100B3000F1EE10FA0FDDD0ED037A91ED037A77EE46
:100B4000C77AF0EEE77AB4EEE70AF1EE10FACCBF1E
:100B50000120002070470020704700BFF0B52A4CEC
:100B600085B094ED000A0C46002305464FF07E57F1
:100B70006946204601931646029303930097FFF7B8
:100B8000B3FFC8BB68462146FFF78AFFDDED027A56
:100B90009DED015ADDED036AD6ED015A96ED006A2E
:100BA0009DED007A94ED024AD4ED014A27EEA70AA2
:100BB00067EEA57AA5EE050A2846E5EE067AA6EECA
:100BC000A60A77EEA77A97EE070A37EE077A65EE60
:100BD000800A26EE000AE7EE840AA7EEA40A26EEB3
:100BE000266A66EEE56AE7EE060AA6EE870A00F0D8
:100BF000A3FB284605B0F0BD1146284600F090FB47
:100C0000284605B0F0BD00BF6C42010070B51C4B1A
:100C100086B093ED000A0B46002405464FF07E5641
:100C200002A918460394049405940296FFF75CFF0A
:100C3000F8B9D3ED016A93ED027AD3ED037A1B681C
:100C40000293F1EE666AB1EE477AF1EE677A1146E9
:100C50006846CDED036A8DED047ACDED057A00F09E
:100C60005FFB28466A4602A9FFF778FF284606B0D0
:100C700070BD1146284600F053FB284606B070BDF3
:100C80006C420100F0B52DED028B364C85B094ED31
:100C9000000A0C46002306464FF07E576946204660
:100CA00001931546029303930097FFF71DFF002859
:100CB0004FD168462146FFF7F3FEDDED026ADDED18
:100CC000015A95ED014A9DED036AD5ED004A95ED77
:100CD000025A9DED007A94ED038AD4ED021A94ED48
:100CE000012A66EEA60A66EE847AE5EEA50A30468B
:100CF000E5EEA47AE6EE060AE6EE057AD7EE070AF6
:100D000077EEA77A25EE201A24EEA00A66EEE42AF2
:100D100025EE653A64EE200A66EE443AA7EE881A9C
:100D2000E5EE842AA4EE863AE6EE853AE7EEA10ADD
:100D3000A7EE820A37EE077AA7EE221AE7EE030A39
:100D4000A7EE230A00F002FC304605B0BDEC028B92
:100D5000F0BD1146304600F0EBFB304605B0BDEC6F
:100D6000028BF0BD6C420100F0B51F4C8DB00D46FA
:100D7000002394ED000A099304464FF07E5708A91A
:100D8000284616460A930B930897FFF7ADFE18BB4B
:100D9000294604A8FFF784FEDDED056A9DED067A7D
:100DA000DDED077A049B0893F1EE666AB1EE477AAF
:100DB000F1EE677A314601A8CDED096A8DED0A7A28
:100DC000CDED0B7A00F0B4FB204601AA08A9FFF78D
:100DD00059FF20460DB0F0BD1146204600F0A8FB9B
:100DE00020460DB0F0BD00BF6C42010070B52C4B29
:100DF00084B0002593ED000A019503460C464FF0A0
:100E00007E5610466946029503950096FFF76CFEE4
:100E1000D0BB92ED005AD4ED017AD2ED014A92EDA9
:100E2000034AD2ED023AD4ED002A94ED023AD4ED11
:100E3000035A25EE276A64EEE76A24EE677A67EEC6
:100E4000A37AA2EEA46A1846E2EE856AA2EEA37A1D
:100E5000E2EE847AA3EE046AE3EE636AA5EE037A17
:100E6000E4EEC37AA3EEE56AE5EEC46AA4EEA57AE1
:100E7000E5EE257A83ED016AC3ED006A83ED027A1F
:100E8000C3ED037A04B070BD60682568A168E268AC
:100E9000586018461D609960DA6004B070BD00BFEC
:100EA0006C420100F0B589B016461D4607466846FB
:100EB0000E9CFFF779FD96ED006AD5ED016AD4ED41
:100EC000027A36EE267A37EE277AB5EEC07AF1EE60
:100ED00010FA00F38680B4EEE66AF1EE10FA05DD52
:100EE000B4EEE76AF1EE10FA00F3AD80F4EEE76AD3
:100EF000F1EE10FAB7EE000A3EDC37EE800A70EE33
:100F0000467A77EEE67AB1EEE70AB4EE400AF1EE01
:100F100010FA40F0D88094ED016AD5ED006A96EDA4
:100F2000015A96ED027AD4ED005AD5ED027A30EEF0
:100F3000000A77EE867A76EEC56A37EE257A86EE77
:100F4000806AC7EE006A87EE807AF5EE007A20EEBE
:100F5000270A8DED006ACDED016A8DED027A8DEDE7
:100F6000030A694604A8FFF79BFD384604A9FFF76A
:100F70006FFD384609B0F0BD76EE806A36EEC60ADF
:100F800070EE677AB1EEE70AB4EE400AF1EE10FABD
:100F900040F0948094ED016AD6ED026A94ED005A17
:100FA00096ED017AD5ED005AD5ED027A30EE000AC1
:100FB00077EE867A76EEC56A37EE257A86EE806A17
:100FC000C7EE006A87EE807AF5EE007A20EE270AF7
:100FD0008DED006ACDED016A8DED037A8DED020A8B
:100FE000BFE7B7EE000A37EE007AB1EEC70AB4EEFB
:100FF000400AF1EE10FA5CD196ED016AD4ED016A77
:1010000095ED025A96ED027AD4ED005AD5ED007AAC
:1010100030EE000A77EEC67A76EEC56A37EE657A6C
:1010200086EE806AC7EE006A87EE807AF5EE007A77
:1010300020EE270A8DED016ACDED026A8DED037A6F
:101040008DED000A8DE7B7EE000A36EE000A70EE6D
:10105000666A76EEE77AB1EEE70AB4EE400AF1EEA0
:1010600010FA35D194ED006AD4ED016A95ED025A7B
:1010700096ED017AD5ED005AD6ED027A30EE000AEF
:1010800077EE867A76EEC56A37EE257A86EE806A46
:10109000C7EE006A87EE807AF5EE007A20EE270A26
:1010A0008DED006ACDED026A8DED037A8DED010ABA
:1010B00057E7B0EE470A10F01BFF9DE7B0EE670A56
:1010C00010F016FF66E7B0EE670A10F011FF22E796
:1010D000B0EE670A10F00CFFC4E700BFF0B50D4694
:1010E00095B0044617461E46FFF75EFC294603A846
:1010F00000F01EFA09AD394606A800F019FA31468B
:10110000284600F015FA06AB03AA21460CA8009564
:10111000FFF7C8FE0C990D980E9A0F9B2160606036
:101120000CA9A260E36010A8FFF746FC204615B0AA
:10113000F0BD00BF30B52DED068BDFED5B1A144618
:1011400089B0B0EE611AF0EE610AB7EE000A05460A
:10115000FFF744FC94ED000AFFF7FAFB84ED000A68
:1011600094ED010AFFF7F4FB84ED010A94ED020A05
:10117000FFF7EEFBE37B84ED020A012B00F0888091
:1011800094ED008A637B94ED01AAF6EE008A012BB0
:1011900028EE288A04BFB1EE4AAA84ED01AA2AEEFD
:1011A00028AA60EE288AB0EE480A10F0EBFDF0EEB7
:1011B000409AB0EE4A0A10F0E5FDB0EE409AB0EE6B
:1011C000680A10F0DFFDF0EE40AAB0EE480A10F019
:1011D00091FDB0EE408AB0EE4A0A10F08BFDB0EE01
:1011E00040AAB0EE680A10F085FDA37B68EE007A95
:1011F00029EE800A2AEE888A69EEAA9A7BBB37EE2E
:10120000A97A78EE006A77EEE99A38EE408A66EEBF
:101210008A7A28EE098A69EE8A9A27EE099AC5ED3C
:10122000017A85ED038A85ED029AC5ED009A04F1F5
:10123000100105A800F07CF905AA29466846FFF7C9
:10124000D7FB637B012B05D1D5ED027AF1EE677AEE
:10125000C5ED027A284609B0BDEC068B30BD28EEFC
:10126000496A60EE496A29EE277A29EE299AAAEEA0
:10127000006AEAEE086AAAEE297AAAEE279A85EDB4
:10128000016AC5ED036A85ED027A85ED009ACEE725
:10129000D4ED007A84ED000AB0EE408AC4ED027A03
:1012A000B0EE670A6EE700BF0000000070B50D46A3
:1012B00090B00446FFF778FB294609A800F038F9FA
:1012C000297BEB7BAA7B6E7B8DF830100DA805F196
:1012D00010018DF833308DF832208DF8316000F038
:1012E00027F909AA214601A8FFF724FF01990298CE
:1012F000039A049B2160606001A9A260E36005A8D5
:10130000FFF75AFB204610B070BD00BF10B5044671
:10131000FFF752FB204610BD00220260426070477A
:1013200000220260426010B40C684A6842600460A7
:101330005DF8044B704700BF80ED000AC0ED010A64
:10134000704700BF10B40C684A68426004605DF8E2
:10135000044B704791ED017A92ED016AD1ED007A6C
:10136000D2ED006A37EE067A77EEA67A80ED017A42
:10137000C0ED007A704700BF91ED017A92ED016AED
:10138000D1ED007AD2ED006A37EE467A77EEE67A52
:1013900080ED017AC0ED007A704700BF91ED017ACF
:1013A00092ED016AD1ED007AD2ED006A27EE067A5D
:1013B00067EEA67A80ED017AC0ED007A704700BF33
:1013C00030B51F4B2DED028B93ED008A85B0F7EE03
:1013D000000AB0EE481A04460D46F0EE408AFFF7C8
:1013E000BFFA58B10023236063602A686B686360AA
:1013F0002260204605B0BDEC028B30BDB0EE481A2D
:10140000DFED100AB0EE680AFFF7AAFA80B995ED91
:10141000017AD5ED007A28EE877A67EEA88A204611
:1014200084ED017AC4ED008A05B0BDEC028B30BDBD
:1014300001A800F077F8019A029B22606360D8E768
:101440006C4201000000000091ED007A92ED006A0C
:10145000D1ED017AD2ED016AB4EEC67AF1EE10FA5E
:10146000F4EEE67A58BFB0EE467AF1EE10FA58BFC5
:10147000F0EE667A80ED007AC0ED017A704700BF29
:1014800091ED007A92ED006AD1ED017AD2ED016A18
:10149000B4EEC67AF1EE10FAF4EEE67AD8BFB0EE0A
:1014A000467AF1EE10FAD8BFF0EE667A80ED007A57
:1014B000C0ED017A704700BF10B5194B2DED068BBA
:1014C00093ED009AD2ED009A92ED01AAD1ED008A37
:1014D00091ED018A20EE099A0446B0EE490A10F017
:1014E00009FCF0EE40AAB0EE490A10F04BFC38EED1
:1014F0004A8A78EEE98A6AEE887A28EE408AE0EE37
:10150000287A2046AAEEA88A77EE8A7A38EE298AC7
:10151000C4ED017A84ED008ABDEC068B10BD00BFDE
:10152000684201000022026042608260704700BF92
:1015300030B400220260426082600D684C688A68A4
:1015400082600560446030BC704700BF80ED000AD7
:10155000C0ED010A80ED021A704700BFD1ED016AAB
:1015600092ED015AD1ED027AD2ED025A91ED007A54
:1015700092ED006A76EE856A77EEA57A37EE067A06
:10158000C0ED016A80ED007AC0ED027A704700BFBD
:10159000D1ED016A92ED015AD1ED027AD2ED025AF3
:1015A00091ED007A92ED006A76EEC56A77EEE57A03
:1015B00037EE467AC0ED016A80ED007AC0ED027A1E
:1015C000704700BFD1ED016A92ED015AD1ED027A68
:1015D000D2ED025A91ED007A92ED006A66EE856ACC
:1015E00067EEA57A27EE067AC0ED016A80ED007AF3
:1015F000C0ED027A704700BFD1ED016AD1ED027AE9
:1016000091ED007A60EE266A60EE277A27EE000AF6
:10161000C0ED016A80ED000AC0ED027A704700BF9C
:10162000D1ED013A92ED006A92ED024AD1ED025AF3
:10163000D2ED014A91ED005A66EE637A64EEE56AF6
:1016400025EE447AE3EE846AE4EE857AA5EE867AA6
:10165000C0ED006A80ED017AC0ED027A704700BFEC
:1016600038B52DED048BD1ED018A91ED009A91ED05
:10167000028A28EEA80A0C46A9EE090A0546A8EE39
:10168000080AFFF779F91A4BF7EE000A93ED001AF2
:10169000F0EE409AFFF764F9F8B9F5EE409AF1EEF2
:1016A00010FA4FF000030FD0C9EE296A284688EEE1
:1016B000A97AC8EE297ABDEC048BC5ED006A85EDE8
:1016C000017AC5ED027A38BDBDEC048B4FF07E5235
:1016D00028462B60AB606A6038BDBDEC048B216886
:1016E0006268A368AB60284629606A6038BD00BFA5
:1016F0006C42010038B5B0EE601A2DED048BB0EEEF
:10170000408AF0EE608AF0EE400A91ED000A04464D
:101710000D46FFF70DF9B0EE681AF0EE409AF0EEC4
:10172000480A95ED010AFFF703F9B0EE681AB0EE2A
:10173000409AF0EE480A95ED020AFFF7F9F8C4ED79
:10174000009A84ED019ABDEC048B204684ED020AD8
:1017500038BD00BF704700BF704700BF014B01227A
:101760001A7070472025FF1F014B00201B68184787
:101770003825FF1F30B400230124074D016A426A57
:1017800080F83C30056380F83D40816180F83E3050
:10179000C26130BC704700BFE8590100F0B545890F
:1017A000C469C77D05FB01F101EB41012144AFB9DB
:1017B00008338DB3033111F8026C11F8015C11F894
:1017C000034C9E409C409D405680958014804489E7
:1017D0000137BC4202F10602ECDCF0BD002DFCD06A
:1017E000D0F82CE0002711F8036B11F8025C11F817
:1017F000014C9E409D409C403EF816603EF81440CF
:101800003EF8155055809480168044890137BC42BB
:1018100002F10602E7DCF0BDF0BD00BFF0B545897E
:10182000C469C77D05FB01F101EB41012144BFB94A
:101830000132002D39D0033111F8026C11F8015C2E
:1018400011F8034C9E409C409D401670557002F864
:10185000014C44890137BC4202F10302EBDCF0BDCC
:10186000002DFCD001324FF0000E033111F8026C54
:1018700011F8015C11F8037CC46A9E409D409F40B2
:1018800034F8166034F8155034F817403612241224
:101890002D121670557002F8014C44890EF1010E9C
:1018A000744502F10302E0DCF0BDF0BD406B70470F
:1018B00090F83E00704700BF70B51D480EF090FBD9
:1018C0001B480EF07DFB08BB19481A4C1A4D0EF050
:1018D000A7FB1A4B21681E682A684FF4836303FB39
:1018E000006000F581730B60106022791448531179
:1018F0009B0003F1604303F5624302F01F020121E4
:1019000001FA02F21A602B79037070BD094C0D4B7D
:1019100022680D491360938B0968074D23F020035B
:101920001B046FF003001B0CD06093838847DCE737
:101930002825FF1FB8CAFF1FB0CAFF1F5025FF1F71
:101940001F8000403C25FF1F3425FF1F2DE9F04F6D
:10195000D1ED057A2DED028BF5EE407AF1EE10FA1D
:1019600097B00C46054600F0E080D2ED010A92EDFA
:10197000000A06A8FFF7E0FC04F10C0994ED058AC3
:10198000494609A80CAEFFF7CBFC0DF13C0806A9AF
:10199000304609AAB0EE480AFFF78EFD12AF49465D
:1019A0004046FFF7BDFC41463846FFF7B9FC3A46D2
:1019B000314601A8FFF7E0FCD4ED010AD4ED077A27
:1019C0009FED612A9DED010AB6EE008AFEEE008AC7
:1019D00020EE881AF8EE671A60EEA80AFEF7D6FF26
:1019E000FCEEC07A94ED021A9FED572A9DED020A93
:1019F00017EE909AD4ED087A61EE280AF8EE671A8D
:101A000021EE081AFEF7C2FFB9F1000F00F0838043
:101A1000E16989457FD2FCEEC07A17EE903A002B3F
:101A200079D0226A934276D2626A94F82C0001FB44
:101A300003234FF0030A13F80990431E19FB0AFB16
:101A40009B4568D8414BD4ED067AD3ED006A9FEDF3
:101A5000407AA46A67EEA67AC7EE878A68EE888A1B
:101A6000B0EE680A10F08EF90AFB094291469278AE
:101A700014F80B3001EE102A99F8012007EE903A85
:101A800000EE902A20EE088AB8EE411AB8EE670AF6
:101A9000F8EE600A03A8FFF759FDB0EE680A10F0EF
:101AA00029F9F0EE481AB0EE481AF0EE480A384626
:101AB000FEF794FF03A909A8FFF73AFD09AA3946E2
:101AC0003046FFF7DFF831464046DFED220A9FED52
:101AD0001E0AFFF70FFE0F98109A119B039003A99F
:101AE00006A804920593FFF723FDDDED046A9DED42
:101AF000057ADDED037AFCEEE66ABCEEC77AFCEE11
:101B0000E77A16EE901A17EE102A17EE903A6970DF
:101B1000AA702B7003E000232B706B70AB7028460B
:101B200017B0BDEC028BBDE8F08F0CAE3046D2EDA5
:101B3000010A92ED000A0DF13C08FFF7FDFB12AF20
:101B4000404604F10C012CE7000000006442010053
:101B50000000344300007F4370B4194C638A9842FC
:101B60001EDAA38A99421BDA237A53B1022B19D0C9
:101B7000012B1ED0A3896589013B1B1A0846194613
:101B800000E065890BB200B205FB030101EB4101E6
:101B9000A36910785854194453784B7093788B701C
:101BA00070BC70476589A3896E1E013B301A591AB3
:101BB000E8E765896B1E5B1A01461846E2E700BF3D
:101BC0006828FF1F90F83E3010B4A3B9C16A174AC5
:101BD00090F82840023902F5FF70002301E032F846
:101BE000023F04FB03F31B12904221F8023FF6D19F
:101BF0005DF8044B704790F83D3090F83C20DBB224
:101C0000D2B280F83D2080F83C3090F83D2090F82A
:101C10003C300832083350F8221050F823208261FB
:101C20000023C16180F83E30D0E700BF04430100CB
:101C30002DE9F04F2DED048BBFB0F0EE408A00F59A
:101C4000306405460EF0C8FD08EE100AE06811F099
:101C500089FAB8EE488ADFED527A88EE277ACDE924
:101C6000000117EE100A11F07DFA9DED001B41EC0A
:101C7000100B10F0D1F851EC100B11F097FDD4EDD2
:101C8000037A95F8003B07EE100A87EE270A032B2C
:101C900000F21E83DFE813F0F802DC02BD0204004C
:101CA00005F6083205F6043392ED002AD3ED001A4A
:101CB000DFED3D0AB7EE001AFEF768FEB0EE409A7F
:101CC0000EF08AFD05F5316408EE100AE06811F0A7
:101CD00049FAB8EE488ADFED327A88EE277ACDE904
:101CE000000117EE100A11F03DFA9DED001B41ECCA
:101CF000100B10F091F851EC100B11F057FDD4EDD2
:101D0000037A95F8103B07EE100A87EE270A032B9B
:101D100000F2D882DFE813F05F02430224020400DD
:101D200005F6183205F6143392ED002AD3ED001AA9
:101D3000DFED1D0AB7EE001AFEF728FEF0EE409A1E
:101D40000EF04AFD05F5326408EE100AE06811F065
:101D500009FAB8EE488ADFED127A88EE277ACDE9E3
:101D6000000117EE100A11F0FDF99DED001B41EC8A
:101D7000100B10F051F851EC100B11F017FDD4EDD1
:101D8000037A95F8203B07EE100A87EE270A032B0B
:101D900000F29B82DFE813F0C401A60177010A007C
:101DA000002474490000B4440000000005F6283205
:101DB00005F6243392ED002AD3ED001A5FED060AF2
:101DC000B7EE001AFEF7E2FDB5EE008A20EE088AB3
:101DD0005FED0C0A1FED0C1AB0EE490A68EEA00A7E
:101DE0002BA8FFF7B3FBB84930A8CB788A780E78D8
:101DF0004C788DF8BF3004318DF8BE208DF8BC6072
:101E00008DF8BD40FFF794FB2FAA2BA937A8FEF74A
:101E10002DFB37A933A8FFF749FA33A927A8FFF705
:101E200075FAD5F8F43A5A69002A1CDD00263746BF
:101E3000D5F8F02A1C6811683444314437A8FFF7FC
:101E400077FB3799389A399BA360216062602146FD
:101E500024A8FFF76DFBD5F8F43A5A690137BA4266
:101E600006F10C06E4DC27A933A8FEF7A5FD05F56D
:101E70002B6A33A937A8FEF79FFD399A3A9B389908
:101E8000379CCAF80820CAF80C30CAF804102FA8EA
:101E900037A9CAF80040FEF78FFDB5EE001A29EE0B
:101EA000811AFDEE000AB0EE410A69EEA00A33A8DD
:101EB000FFF74CFB05F6CC2833A937A8FFF738FB12
:101EC000389A399B3799C8F80420C8F80830C8F800
:101ED000001021A84146FFF72BFBF0EE480A9FEDCA
:101EE0007B1A9FED7B0A33A8FFF730FB05F52C69C1
:101EF00033A937A8FFF71CFB3799389A399BC9F8E3
:101F00000010C9F80420C9F8083049461EA8FFF798
:101F10000FFBD5F8F42A536905F52A61002B0091CF
:101F200040F3AC8005F6D82705F6E4264FF0000B09
:101F300011680BEB4B04A400214403A8FFF7F8FA47
:101F400039461BA8FFF7F4FA1BA937A8FFF7F0FAE8
:101F500037AA03A92BA8FFF71BFB414618A8FFF7D8
:101F6000E7FA18A937A8FFF7E3FA37AA2BA933A88D
:101F7000FFF728FB394615A8FFF7DAFA15A909A8D3
:101F8000FFF7D6FA09AA33A937A8FFF7E7FA379976
:101F9000DDF8E0E0399A039106A803A9CDF810E036
:101FA0000592FFF7C5FA009937A8FEF705FD37A996
:101FB00033A8FEF701FD33AA51462BA8FEF716FF02
:101FC000314618A8FFF7B4FA18A937A8FFF7B0FAF6
:101FD00037AA03A91BA8FFF7DBFA1BAA2BA933A872
:101FE000FEF750FE314615A8FFF7A2FA15A909A879
:101FF000FFF79EFA09AA33A937A8FFF7AFFA379976
:10200000DDF8E0E0399A03910CA803A9CDF810E0BF
:102010000592FFF78DFA494633A8FFF789FA33A9ED
:102020002BA8FFF785FA2BAA03A937A8FFF796FA82
:102030003799DDF8E0E0399A03910FA803A9CDF8AC
:1020400010E00592FFF774FAD5F8F42A126803A994
:10205000144437A8FFF76CFA37983899399AA26078
:102060002060616012A82146FFF762FAD5F8F42AD1
:1020700051690BF1010B59453FF75AAF3FB0BDEC29
:10208000048BBDE8F08FDFED136A9FED137ADFED6F
:10209000137A20EE260AB5EE008A20EE077A87EE44
:1020A000270A0FF06FFE05F6283205F6243392ED6D
:1020B000002AD3ED001AB7EE001AFFEE000AFEF771
:1020C00065FC20EE088A83E67824FF1F0000164492
:1020D0000000C0420000B443D00F49400000344328
:1020E00000000000F6EE007AB4EEE70A5FED040AA5
:1020F000F1EE10FAB7EE001A05F6243205F6283391
:10210000D4BFB0EE600AB0EE410AD2ED001A93EDF2
:10211000002AFEF73BFCB5EE008A20EE088A57E65F
:10212000F6EE007AB4EEE70AF1EE10FAC4BFF7EE6D
:10213000007A37EEC00A05F6243205F62833D2EDD0
:10214000001A93ED002A5FED1A0A30EE000AB7EE8E
:10215000001AFEF71BFCB5EE008A20EE088A37E66F
:102160005FED246A1FED247A5FED247A20EE260AC3
:1021700020EE077A87EE270A0FF004FE05F61832E4
:1021800005F6143392ED002AD3ED001AB7EE001ACB
:10219000FFEE000AFEF7FAFBF0EE409AD0E5F6EE0D
:1021A000007AB4EEE70A5FED320AF1EE10FAB7EE0C
:1021B000001A05F6143205F61833D4BFB0EE600AE3
:1021C000B0EE410AD2ED001A93ED002AFEF7DEFBD5
:1021D000F0EE409AB4E5F6EE007AB4EEE70AF1EEDE
:1021E00010FAC4BFF7EE007A37EEC00A05F61432D3
:1021F00005F61833D2ED001A93ED002A5FED480A78
:1022000030EE000AB7EE001AFEF7C0FBF0EE409A7F
:1022100096E55FED506A1FED507A5FED507A20EE43
:10222000260A20EE077A87EE270A0FF0ABFD05F6A7
:10223000083205F6043392ED002AD3ED001AB7EE0A
:10224000001AFFEE000AFEF7A1FBB0EE409A37E558
:10225000F6EE007AB4EEE70A5FED5F0AF1EE10FAEF
:10226000B7EE001A05F6043205F60833D4BFB0EE17
:10227000600AB0EE410AD2ED001A93ED002AFEF793
:1022800085FBB0EE409A1BE5F6EE007AB4EEE70A65
:10229000F1EE10FAC4BFF7EE007A37EEC00A05F689
:1022A000043205F60833D2ED001A93ED002A5FEDF3
:1022B000740A30EE000AB7EE001AFEF767FBB0EEC4
:1022C000409AFDE45FED7A9A3AE51FED7B8A7FE55F
:1022D0001FED7D9AF4E400BF2DE9F0412DED028B56
:1022E00096B0B7EE000A1E9BD3ED007AD3ED010A3B
:1022F0000C4630EE670A054601A8FFF71DF89FED72
:10230000572AD4ED077A94ED011A9DED010AF8EEF3
:10231000671AF0EE420AFEF739FBFCEEC07A9FED39
:102320004F2A94ED021A9DED020A17EE906AD4ED41
:10233000087AF0EE420AF8EE671AFEF727FBE26928
:10234000964212D8FCEEC07A216A17EE903A8B4280
:102350000BD8606A94F82C1002FB030303279E5DE0
:102360004B1E16FB07F8984509D9002328462B7009
:102370006B70AB7016B0BDEC028BBDE8F081384BD2
:10238000D4ED067AD3ED006A9FED367AA46A67EE43
:10239000A67AB6EE008AC7EE878A68EE888AB0EE23
:1023A000680A0FF0EFFC07FB06421646927814F815
:1023B000083001EE102A727807EE903A00EE902A6B
:1023C00020EE088AB8EE411AB8EE670AF8EE600A05
:1023D00003A8FFF7BBF8B0EE680A0FF08BFCF0EE35
:1023E000481AB0EE481AF0EE480A12A8FEF7F6FABC
:1023F00003A909A8FFF79CF809AA12A90CA8FEF7DF
:1024000041FC0CA9DFED180A9FED140A0FA8FFF795
:1024100071F90F98109A119B039003A906A80492D2
:102420000593FFF785F8DDED046A9DED057ADDED96
:10243000037AFCEEE66ABCEEC77AFCEEE77A16EEAB
:10244000901A17EE102A17EE903A28466970AA7073
:102450002B7016B0BDEC028BBDE8F08100000000CF
:10246000644201000000344300007F432DE9F04F37
:102470002DED048BD5B00790087A069198B14B6882
:10248000002403EB800053F8042B92F85C1011B188
:10249000526D926914449842F5D1B4F1FE5F94BF35
:1024A000A0004FF0FF30079E34460EF015F954F8A7
:1024B0002C5B0B90294650A8FEF77EFA50A94CA839
:1024C000FEF77AFA4CAA05F110013CA8FEF78EFC43
:1024D0000DF590793CA940A8FEF7BAFA2146484686
:1024E000FEF76AFA494650A8FEF766FA50AA40A9D4
:1024F0004CA8FEF77BFC4E9A4C994D984F9B72620C
:10250000F1613062B3624CA944A8FEF755FA334634
:1025100050A853F81C4B0993214635461E46FEF73A
:102520004BFA50A94CA8FEF747FA4CAA04F1100147
:102530004846FEF75BFC31464CA8FEF73DFA4CAA34
:10254000494650A8FEF752FC5099539B519C529A11
:10255000E960AB6150A940A82C616A61FEF72CFAD2
:10256000069B996811F0FF0300F0338400231A469C
:102570000D93069B9FED0C8A5B6803920D9C53F8AC
:10258000242092F85C00A4000594002800F0AF829B
:10259000526D9269002A40F3AA820023049330AB63
:1025A00033AE0A930EE100BF00000000D4ED020A32
:1025B00094ED010A39A8FEF7BFFEDDF824A039AA80
:1025C00051463CA8FEF722FB079B196850A82C3106
:1025D000FEF7AEFF50A94846FEF7B4FE49464CA8A8
:1025E000FEF79EFEDDF828804CAA3CA94046FEF787
:1025F000D5FE57F8253039A8D3ED040A93ED030A28
:10260000FEF79AFE39AA51463CA8FEF7FFFA2C467F
:10261000079D296850A82C31FEF78AFF50A948462B
:10262000FEF790FE49464CA8FEF77AFE4CAA3CA95C
:102630003046FEF7B3FE57F8243039A8D3ED060A2A
:1026400093ED050AFEF778FE39AA51463CA8FEF73D
:10265000DDFA296850A82C31FEF76AFF50A94846D8
:10266000FEF770FE49464CA8FEF75AFE4CAA3CA95C
:1026700036A8FEF793FE50A8FEF74EFE52A8FEF7CE
:102680004BFE41463CA8FEF74BFE3CA94846FEF7F0
:1026900047FE4A4650A94CA8FEF7D6FE4D9B4C9AE1
:1026A000519350A91CA85092FEF73AFE3CA9484607
:1026B000FEF736FE4A4652A94CA8FEF7E1FE4D9BB6
:1026C0004C9A539352A91EA85292FEF729FE314606
:1026D0003CA8FEF725FE3CA94846FEF721FE4A46E7
:1026E00050A94CA8FEF7B0FE4D9B4C9A519350A9AF
:1026F00018A85092FEF714FE3CA94846FEF710FEBB
:102700004A4652A94CA8FEF7BBFE4D9B4C9A5393E8
:1027100052A91AA85292FEF703FE36A93CA8FEF76A
:10272000FFFD3CA94846FEF7FBFD4A4650A94CA8D0
:10273000FEF78AFE4D9B4C9A519350A914A85092D3
:10274000FEF7EEFD3CA94846FEF7EAFD4A4652A9CF
:102750004CA8FEF795FE4C9A4D9B529252A916A892
:102760005393FEF7DDFDAC6850A94CA8FEF7D8FDE9
:10277000D4ED037A9DED4C7AB4EEE77AF1EE10FADF
:1027800000F1858150A94CA8FEF7CAFD9DED4D7A58
:10279000D4ED047AB4EEE77AF1EE10FA00F1148386
:1027A0000B9B0C9A98585C210DF09AFF069B059A9A
:1027B0005B6804999A58526D926901319142049173
:1027C00080F2938109993CA8FEF7F6F8069B059ADA
:1027D0005B689B585A6DD3F85880049B57689B01DF
:1027E0005C200293FD180DF075FF4FF0000295F884
:1027F0003C3080F85420079AC0F83880044680EDB9
:10280000008A80ED168AD2F8008043B1EA682B690D
:1028100082646A69C3640123026580F854304146CA
:1028200050A8FEF7C9F808F1100B50A94CA8FEF704
:10283000C3F84CAA59464846FEF7D8FA3CA94CA81A
:10284000FEF7BAF84CAA494650A8FEF7CFFA029B09
:1028500008F1200AFB580893514636A8FEF768FE97
:1028600036A93046FEF764FE089B3246194639A861
:10287000FEF78EFE39AA50A924A8FEF775FA414644
:1028800050A8FEF799F850A94CA8FEF795F84CAA65
:1028900059464846FEF7AAFA3CA94CA8FEF78CF820
:1028A0004CAA494650A8FEF7A1FA6B680893514616
:1028B00036A8FEF73DFE36A93046FEF739FE089BE6
:1028C0003246194639A8FEF763FE39AA50A90A987C
:1028D000FEF74AFA414650A8FEF76EF850A94CA8F8
:1028E000FEF76AF84CAA59464846FEF77FFA3CA91B
:1028F0004CA8FEF761F84CAA494650A8FEF776FAB4
:10290000D5F80880514636A8FEF712FE36A93046A3
:10291000FEF70EFE4146324639A8FEF739FE39AAC7
:1029200050A93046FEF720FADDED255ADDED312ABB
:102930009DED246ADDED331ADDED303ADDED344AEC
:10294000029ADDED266ADDED327AB95884ED016A2E
:1029500031EEC62A32EEE53A33EEC66A22EE435A2B
:1029600034EEE54A76EEA77AF0EE456AE6EE046AC2
:102970006B6808939DED357AC4ED051A77EE877A7A
:10298000F0EE081AB7EE007A87EE265A039B4CA8A1
:102990009A000C9205F1180A05F1240B05F1300894
:1029A00087EEA17A84ED092AC4ED025AC4ED042A07
:1029B00084ED083A84ED076AC4ED033A84ED0A4ACF
:1029C000C4ED064A84ED005A84ED167AFEF7B0FD98
:1029D0004CA94846FEF7ACFD089B4A46194650A84C
:1029E000FEF7D6FD519A5099529B2B62EA61A9617C
:1029F00027A85146FEF79CFD0299AB6879580893C9
:102A00004CA8FEF795FD4CA801464846FEF790FD00
:102A1000089B4A46194650A8FEF7BAFD529B519AA8
:102A200050996962EB62AA6259462AA8FEF780FDB6
:102A300059464846FEF77CFD4A4651464CA8FEF7EB
:102A4000EFFD4CA8014650A8FEF70AFE5099519A96
:102A5000529BAB6329636A6341462DA8FEF768FD6C
:102A6000D4ED167A02996A687958AB680B9F039D7A
:102A7000C4F83480F5EEC07AF1EE10FAE163226416
:102A8000636447F825403FF791AD20468BE652A995
:102A90004846FEF745FC50A94CA89DED489AD4ED58
:102AA000018AFEF73DFC9DED4D7AD4ED047AB4EE3B
:102AB000E77AF1EE10FA7FF573AE52A912A8FEF78D
:102AC0002FFC9DED137AD4ED027AB4EEE77AF1EEA5
:102AD00010FA7FF765AEB4EEE89AF1EE10FA7FF7E0
:102AE0005FAE039B0133039360E6069A91680D9AEB
:102AF000013210460D92CAB282423FF73FAD079BAA
:102B0000DDF80CB09D682A68002A00F047810DF1BD
:102B1000C00ADDF82C80079FCDF808A000245E468F
:102B200000212046FDF7FCFEAB6953F8203036A8A3
:102B30001968FEF7F5FB396850A82C31FEF7F8FC50
:102B400050A93CA8FEF7FEFB3CA94CA8FEF7E8FB09
:102B50004CAA36A94846FEF721FC4A4609990EA818
:102B6000FDF7FCFFBD6800212A682046FDF7D8FE6E
:102B7000AB690EA953F8205010A8FEF7D1FB0298BC
:102B8000FEF7D0FC002E00F0FC804FF0000E9DED13
:102B9000104ADDED114ADDED301A9DED312ADDEDF3
:102BA000322ADFEDAE3AF346F2467346F4467146FA
:102BB000A8F10400B7EE005A02E00131B14258D04A
:102BC00050F8042FD2ED025A92ED096AD2ED017A43
:102BD000D2ED0A6A92ED007A74EEE55A74EE677AE5
:102BE00026EE656AC2ED0C5AA7EEA66AC2ED0B7A14
:102BF00026EE076AB5EEC06AF1EE10FADDD9B4EE42
:102C0000C56AF1EE10FAD8DAD2ED086A92ED073A09
:102C100066EEE77AE5EE837A27EE877AB5EEC07A3C
:102C2000F1EE10FAC9D9B4EEC57AF1EE10FAC4DAB1
:102C300075EE466A76EEC76AF5EEC06AF1EE10FAF6
:102C4000BBD9D2ED167AF4EEE37AF1EE10FAB4D5F0
:102C50000B4601314FF0010EB142F0EE472AB0EEC3
:102C6000462AF0EE661AF0EE673AF346F246F4466C
:102C7000A6D1BAF1000F40F0B480BBF1000F01D033
:102C80008DED312ABEF1000F40F0E480BCF1000F61
:102C900077D058F823209DED300AD16B03934CA8D0
:102CA000FEF7AAFC039B9DED310A58F82320484605
:102CB000116CFEF7A1FC49463CA8FEF739FC3CAA82
:102CC0004CA950A8FEF74AFC039B9DED320A58F828
:102CD00023203CA8516CFEF78FFC0DF1CC0A3CA9D7
:102CE00036A8FEF725FC36AA504650A9FEF736FC5A
:102CF00051464CA8FEF71CFC4CAA07F10C0150A849
:102D0000FEF732F85098529ADDF844E1339051467C
:102D100039A83592CDF8D0E0FEF70AFC20A8FEF7DE
:102D2000FBFA039B58F8232092F854104FEA830BC8
:102D3000002959D1936B03931A68514650A8D2F8D1
:102D400000A0FEF7F5FB58F80B204CA8516BFEF7DE
:102D5000EFFB9FED431ADDED210A9DED200A484669
:102D6000FEF7F4FB039BCDF80090194650AA4CAB3C
:102D70003CA8D0479DF8F0109DF8F1209DF8F23066
:102D800002E000231A4619466A712971AB71BD68C9
:102D90002A6801349442FFF4C3AEB346BBF1000F7E
:102DA0000AD00B9B00241D1F01345C2155F8040F31
:102DB0000DF096FC5C45F7D10B980DF08FFC55B0EB
:102DC000BDEC048BBDE8F08F52A912A8FEF7A8FA5B
:102DD000E6E4079A95682A689B46002A7FF497AE36
:102DE000EAE7CDED301A48E7916C9DED300A484690
:102DF000FEF7E6FA039B9DED310A58F823203CA824
:102E0000D16CFEF7DDFA3CA950A8FEF789FA50AA6A
:102E100049464CA8FEF79EFA039B9DED320A58F8EE
:102E2000232036A8116DFEF7CBFA36A922A8FEF7AB
:102E300077FA22AA4CA950A8FEF78CFA5098519A1A
:102E4000209020A924A82192FEF76AFA039B58F843
:102E500023206FE7CDED322A18E700BFFFFF7F7F09
:102E6000000000002DE9F04FC54B0360B1B0002217
:102E700000F1D003012502618360057304460591CA
:102E80000DF0AAFC2246BF4B606042F8143B10468E
:102E90000292FDF789FD022384F8243084F825503E
:102EA00006A8FEF73FFB09A8FEF73CFB0CA8FEF7BF
:102EB00039FB94F8243094F82520002B00F052813F
:102EC000032B00F04F81012B00F0D381042B00F085
:102ED000D081022A02D0052A40F04A8125AE0DF1A8
:102EE000A40B0DF164090DF1540A0DF1480821AF4E
:102EF00006A8FEF717FBDFEDA40A9FEDA41AA44D68
:102F0000B0EE600A09A8FEF721FBB7EE001AF0EE5A
:102F1000410AB0EE410A0CA8FEF718FBDFED9A1A41
:102F200004F12803B0EE611AF0EE610A1846B7EE1C
:102F3000000A0393FDF752FDDFED931AB7EE000A86
:102F4000B0EE611AF0EE610A04F13800FDF746FDBB
:102F50009FED8D1A04F148031846F0EE410AB0EED9
:102F6000410A0493FEF7F2FA04F15402B7EE001A94
:102F70001046F0EE410AB0EE410A0192FEF7E6FA81
:102F80009FED811A04F16000F0EE410AB0EE410AB3
:102F9000FEF7DCFA9FED7C1A04F16C00F0EE410ABA
:102FA000B0EE410AFEF7D2FA06A94046FEF7C0FA93
:102FB00078490A788DF864204A788DF865208A78F7
:102FC0008DF86620043111F8012C8DF867201AA8BD
:102FD000FEF7AEFA4A4641465846FDF747FA5946CB
:102FE0003846FEF763F939463046FEF78FF9259AE1
:102FF00026982799A263289A6264E0632164504668
:103000003146FDF7D9FC09AB19465846FEF790FA50
:10301000049BDDF8A8E02B9A2999C4F84CE02265BE
:10302000A16440461946FEF783FA0CAB1946584690
:10303000FEF77EFA2A9A29992B9BA265616548467C
:103040000199E365FEF774FA04F17C0A4FF400631A
:10305000A367504604F1840301934FF00008FEF784
:103060005BF90198FEF758F984F88C804FF4005012
:103070000DF032FB04F17803C4F89000C1460493CC
:1030800008200DF027FBD4F89030056080F80490FC
:1030900080F8059080F80690294643F808003846E5
:1030A000FEF73EF939463046FEF73AF932465146C8
:1030B0005846FEF7C9F92A9B299AC4F88030E2677E
:1030C000514609A8FEF72CF939463046FEF728F993
:1030D000324601995846FEF7D3F92A9B299AC4F83B
:1030E0008830C4F8842001990CA8FEF719F92A4BFE
:1030F0000835AB4208F10408C2D104F1A000FDF785
:1031000053FC04F1B000FDF74FFC04F1C000FDF7E3
:103110004BFC039BC4F89430049BC4F89C30029B86
:10312000C4F8983019463846FDF746FC39465846EB
:10313000FDF742FC29992A9D2C9B2B9AA162E562FE
:103140006363594630462263FDF736FC9DF8143020
:1031500084F8D43004F194052046C4F8D05031B03E
:10316000BDE8F08F002A3FF4B9AE032A3FF4B6AEB3
:10317000052A00F28980DFE802F0788774716E1109
:10318000C4420100FC420100000000000000FAC33C
:10319000A828FF1F7824FF1FA868FF1F3C4A089239
:1031A000052B6DD8DFE803F0534F6C4C4903384BC7
:1031B0000B9325AE0DF1A40B09A93046FEF7B8F923
:1031C0003246584606A9FEF72BFA29992A9A2B9BD4
:1031D0000C910DF164090CA90FA80D920E930DF13D
:1031E000540AFEF7A5F90CA94846FEF7A1F90DF11E
:1031F000480809A95046FEF79BF921AF06A94046A9
:10320000FEF796F94346524649463846FDF766FFB3
:1032100039463046FEF77AF831465846FDF740FC0D
:1032200029992A982B9A2C9B6161A0615946E261E9
:1032300023621DA8FDF7C0FB5AE6154B0A93B8E7B9
:10324000134B0993B5E74FF07E530A93B1E74FF064
:103250007E530993ADE70E4A0792A1E70C4A069206
:103260009EE74FF07E5208929AE74FF07E52069208
:1032700096E7012A3FF432AE042A7FF479AF2DE6B7
:103280004FF07E530B9394E74FF07E52079287E7FF
:10329000000080BF90F83E30002BFBD1012380F866
:1032A0003E30C9B190F83E30002BFBD190F83C3055
:1032B000428943B98389416A006A03FB02F202EB47
:1032C00042020DF0ADB88389016A406A03FB02F245
:1032D00002EB42020DF0A4B8704700BF2DE9F04F99
:1032E000454F85B004460025A26F00212846FDF712
:1032F00017FBD4F89030A26F53F8206000212846C5
:10330000FDF70EFBD4F8902094F8D43052F820202A
:10331000DB00107951799279DBB210FB03F013FBDB
:1033200001F113FB02F387FB002C87FB012E87FBC7
:1033300003826044714413440135A0F3C810A1F323
:10334000C811A3F3C813B5F5006F30717171B37173
:10335000CAD100230193019A93B24FEA8319203313
:103360001FFA89F90FFA83F80FFA82FA0026B7B22A
:1033700009EB0705ADB22846A26F0021FDF7D0FA90
:10338000D4F89030A26F53F820300021284693F8EB
:1033900004B0FDF7C5FAD4F89010A26F51F82030B0
:1033A000002128465D79FDF7BBFAD4F8902052F849
:1033B00020208DF80CB093798DF80E3030B203AA2E
:1033C00051468DF80D50FEF7C7FBC7F13F0000B224
:1033D000013603AA4146FEF7BFFB402EC7D1019B31
:1033E0000133202B0193B6D101210448FFF752FF8E
:1033F00005B0BDE8F08F00BF818080806828FF1F86
:103400002DE9F04F874B85B01B680393864B039DD6
:103410001C680DF0E1F9854B22689FED850A60601C
:10342000A3FB05131B0B41F2883101FB135307EE7D
:10343000903AF8EEE77A936887EE800A204698473C
:103440000DF0CAF96368784A7A4912680D681669FE
:10345000DFED796AC01A07EE900AF8EE677A87EE18
:10346000A67A84ED037A0DF0B7F92B7B686000240F
:103470004BB1AB68314653F82400FEF7F7FF2B7BC6
:103480000134A342F5DC0DF0A7F96B68DFED6A6A41
:10349000684A6A491468C01A07EE900AF8EE677A1B
:1034A000226887EEA67A53688B4285ED047A40F055
:1034B000B580634F0025A26F00212846FDF730FA42
:1034C000D4F89030A26F53F8206000212846FDF711
:1034D00027FAD4F8902094F8D43052F82020DB005A
:1034E000107951799279DBB210FB03F013FB01F1F3
:1034F00013FB02F387FB002C87FB012E87FB038263
:103500006044714413440135A0F3C810A1F3C811FD
:10351000A3F3C813B5F5006F30717171B371CAD1DF
:1035200000230193019A93B24FEA831920331FFAC3
:1035300089F90FFA83F80FFA82FA0026B7B207EB7F
:103540000905ADB22846A26F0021FDF7E9F9D4F8CC
:103550009030A26F53F820300021284693F804B031
:10356000FDF7DEF9D4F89030A26F53F82030002137
:1035700028465D79FDF7D4F9D4F8903053F820301F
:103580008DF808B09B798DF80A3030B202AA514606
:103590008DF80950FEF7E0FAC7F13F0000B201369E
:1035A00002AA4146FEF7D8FA402EC7D1019B01334B
:1035B000202B0193B6D101212248FFF76BFE0C218D
:1035C00021480EF037F8184B1B68D8680FF0CAFD79
:1035D00041EC100B04211D480CF03EFE01211C485B
:1035E0000EF028F819480CF0E1FD0C2119480EF0F6
:1035F00021F8104B1B6818690FF0B4FD41EC100B5B
:10360000042112480CF028FE012111480EF012F896
:103610000E480CF0CBFD05B0BDE8F08F2046984772
:10362000CDE700BFDCCAFF1FA8C8FF1F5917B7D1DD
:1036300000409C45ACC8FF1F00247449DD320000E7
:10364000818080806828FF1F045501003C19FF1FFE
:103650001455010018550100F0B5254B25481D787B
:10366000254B93FBF5F31B0180FB03201844DB176C
:10367000C3EBE0000A3080B240F273141F4B93FB9F
:10368000F5F50A3880B20322002140FA02F3033331
:103690009BB2013AA3422CBFC9180919561CF4D198
:1036A000A942EED8164B174C1E68174D032140FA5D
:1036B00001F206FB02F385FB03E71F440332DB172D
:1036C000C3EBE71392B20333B2F5B97F01F1FF31D7
:1036D0009BB2C2F5B97704D801373B449BB240F2A4
:1036E0007312628024F8043B4B1CE0D1F0BD00BF94
:1036F0003719FF1F8988888840420F0080841E0088
:103700005825FF1F4025FF1F818080802DE9F0474D
:10371000844B85481978854F854EDFF84C82854D5E
:10372000DFF848920CF03EFCFFF796FF824B012039
:103730001B68984701210E200DF048F80121062052
:103740000DF044F8012102200DF040F80121152070
:103750000DF03CF8012105200DF038F8012108207A
:103760000DF034F8012114200DF030F8DFF800C21C
:10377000724BDFF800E2724A72487349002440F24B
:10378000011AA7F800A03460CCF800401B7892FB27
:10379000F3F31B018EFB03E21A44DB17C3EBE203D6
:1037A0004FF0030E694A0360C1F800E0C8F800302A
:1037B0001368DFF8C4E166490CF5803C0CF1300C6D
:1037C00043F4517313604FF45173CCF80030136815
:1037D00043F4803343F480731360DEF8003000F567
:1037E0007040343043F00203CEF80030036843F0F9
:1037F000020303600B6843F080030B6028462146F8
:103800000CF050FC214648460CF04CFC51482B680B
:103810000268A3F806A04FF0020C02F581721A604C
:10382000A3F804C0297999F804A0C3F810804FF0D8
:10383000200E4FF4817801F180414FEA0A2AC3F843
:103840000C80C3F818E001224FF0040801F50431A0
:103850004AEA0E0A4FF6F07EDA82C3F80880DA836D
:10386000A3F814E0A3F81CA0B1230C700B70D9F8D6
:103870000030D0F800A038493888C3F800A019619A
:10388000A3F81680A3F81E80A3F81CC0998B9A8019
:10389000C0F583776FEA4141BFB240F000406FEA64
:1038A000514140EA872089B2DC60DC809C829C61C7
:1038B0009860998399F804702848DFF8C0C0284CB4
:1038C00028497B119B0003F1604303F5614307F135
:1038D000100807F01F0702FA07F740F828C01F601A
:1038E0002B7903F1604303F564434FF0090C83F82F
:1038F00000E02F797B119B0003F1604307F01F0E5E
:1039000003F56143103702FA0EF240F827401A60BF
:103910002A7999F804300A700B70C6F800C0BDE827
:10392000F08700BF5425FF1F2825FF1F5625FF1FC6
:1039300000900340B8CAFF1F3825FF1F3719FF1F2B
:1039400040420F0008900340109003403090044024
:10395000008000405025FF1FC0F00F400014FF1FE3
:10396000691700001B80004018900340B0CAFF1F79
:10397000049003408988888840800440B91800007A
:10398000F8B5194B1C68002C2AD0224600E01A46D4
:103990005368002BFBD1154B5360236820461B68EE
:1039A00098476468002CF8D11149124B1248134A09
:1039B00008601A60124E134DFFF7A8FE1248134913
:1039C000134A0124F023FF2704700B7037602C701A
:1039D0001370FFF741FE21460448FFF75BFCF8BD7A
:1039E000024C1C60D9E700BF2425FF1F6828FF1F79
:1039F0003825FF1F3425FF1F153A00005D17000012
:103A00001C25FF1F2125FF1F3419FF1F3519FF1F1C
:103A10003719FF1F2DE9F04F89B00023079002935B
:103A2000BD480CF0C5FA002840F07381029B0133B9
:103A3000DBB2052B029316D9079B002B40F0EB81DC
:103A4000B64A1378112B40F2F681013BDBB21370BA
:103A5000B34AB44E1370FFF7FFFDB34A012313704E
:103A6000337000230293B14B1B780593002B00F0B9
:103A70007781AF4CAF4BA8481D680CF0A7FAAE4A4F
:103A80004FF4836303FB00530693136813F001059F
:103A900000F0AA81A948036813F0010500F08E81A7
:103AA0004FF4C0720021A64810F0CCF94FF4C07258
:103AB0000021A44810F0C6F92568002D00F0BE8151
:103AC000059A02F1200A02F13009002637467C01EE
:103AD000A4B22B689A4AD3F80C80C4EB0A01324492
:103AE00089B200232846C0472B68964AC4EB0901D7
:103AF0003244DC68013789B200232846A047022FF0
:103B000006F1C006E3D16D68002DDED18C4B1E7826
:103B10005F7893F802E08B4B93F800C093F8018034
:103B20009878874B0493874B039300230193069B5C
:103B3000019ADDF80CB0DDF810A09D184023009329
:103B4000B6B2BFB21FFA8EFE1FFA8CFC1FFA88F8BD
:103B500080B20024102305F101091E424FF000013C
:103B600018BF01211F4218BF61F07F011EEA030F39
:103B700018BF41F010011CEA030F18BF41F04001CB
:103B800018EA030F18BF41F00801184218BF41F0AE
:103B9000200141F00202295509F8042004F583743C
:103BA0005B00B4F5836F9BB2D7D1009B013B05F15D
:103BB0000205009310D09AF803609AF804709AF8FE
:103BC00005E09BF803C09BF804809BF805000AF110
:103BD000030A0BF1030BB3E7019B8033B3F5807F3E
:103BE000019314D0049A039992F8C06092F8C170BE
:103BF00092F8C2E091F8C0C091F8C18091F8C2007B
:103C00001346C03304930B46C03303938FE70599E3
:103C10009DF800304048C1F3400261F3000362F3B5
:103C2000C713C1F3800262F30413C1F3C00262F34D
:103C30008613C1F30012069962F3C30381F80031C1
:103C400081F8063281F80C3381F81234394B1D6843
:103C50000CF0BCF93C4B04FB005000F583615A8822
:103C6000A0F8042133F8042BA0F8022100F583709A
:103C70008142F4D12848354C0CF0C2F92B4B2B4A29
:103C80001B780133DBB20F2B88BF0023137023781E
:103C9000002B3FF4C5AE214A1378112B0BD9013B01
:103CA000DBB213701E4A1F4E1370FFF7D5FC1E4A7D
:103CB000012313703370264E1748012535600CF030
:103CC000AFF91C4B234A1F68234B126819684FF445
:103CD000836303FB007000F5817313600860938BAE
:103CE0001E4923F080031B041B0C9383938B9BB210
:103CF00043F0200309204FF481779383D76000239A
:103D0000306005480D7023700CF052F900283FF424
:103D10008DAE09B0BDE8F08F2825FF1F3519FF1FB4
:103D20003719FF1F3419FF1F1825FF1F6428FF1FB5
:103D30002425FF1F5025FF1FE026FF1F5C25FF1FC6
:103D4000E426FF1F6025FF1F4025FF1F2025FF1FC2
:103D500000900340B8CAFF1FB0CAFF1F1925FF1FFC
:103D60003A4E3B4C3378256863B14DB1394F2B68DF
:103D700039781B69284698476D68002DF7D125686A
:103D800000233370344E85B1344F05E02B6828464C
:103D90005B6898476D6845B13378002BF6D02B6887
:103DA00039785B6928469847F0E72D4D2B78002736
:103DB00037709BBB2B4B1B7805935BE60CF04CFCE0
:103DC00000283FF46DAE284B2A4603F5C07103F876
:103DD000032C03F8022C03F8012C03338B42F6D199
:103DE00022480CF03FFC5BE610460CF035FC002846
:103DF0003FF450AE1E4B2A4603F5C07103F8032C66
:103E000003F8022C03F8012C03339942F6D1194828
:103E10000CF028FC3EE60290079024E6164B174A69
:103E20001B78C3F1FF031360FFF716FC0D4B2F70D7
:103E30001B7805931EE6079B029314E62846A846C6
:103E4000AC46AE462F462E466BE600BF3619FF1F26
:103E50002425FF1F1A25FF1F3419FF1F3519FF1FC7
:103E60002125FF1F6428FF1F6325FF1F5C25FF1FFF
:103E7000E726FF1FE026FF1F1C25FF1F5825FF1FF9
:103E80002DE9F0410C2121480DF0D4FB20480CF025
:103E90008DF9204B204A186803681B6893422FD184
:103EA0001E4B1C68002C2ED0224600E01A46536898
:103EB000002BFBD11A4B5360236820461B689847A0
:103EC0006468002CF8D11749174B1848184A086045
:103ED0001A60184E184DFFF719FC18481849194A6E
:103EE0000124F023FF2704700B7037602C701370CF
:103EF000FFF7B2FB21460A48FFF7CCF9BDE8F08195
:103F0000BDE8F0411847064C1C60D5E72855010074
:103F10003C19FF1FACC8FF1F813900002425FF1F7B
:103F20006828FF1F3825FF1F3425FF1F153A0000A2
:103F30005D1700001C25FF1F2125FF1F3419FF1FDF
:103F40003519FF1F3719FF1F2DE9F04F2DED028B9B
:103F5000DFEDDD0ADD48DE4C93B0B0EE600AFDF720
:103F6000EBF9DFEDD90ADB48B0EE080AFDF7E4F91A
:103F7000DFEDD50AD848B1EE080AFDF7DDF9DFED2F
:103F8000D20AD648B2EE020AFDF7D6F9DFEDCE0A24
:103F9000D348B2EE080AFDF7CFF9DFEDCB0AD148DE
:103FA000B2EE0E0AFDF7C8F9DFEDC70ACE48B3EE50
:103FB000020AFDF7C1F9DFEDC40ACC48B3EE050AE9
:103FC000FDF7BAF9DFEDC00AC948B3EE080AFDF7FC
:103FD000B3F9DFEDBD0AC748B3EE0B0AFDF7ACF944
:103FE000DFEDB90AC448B3EE0E0AFDF7A5F9DFED1F
:103FF000B60A9FEDC20AC248FDF79EF9DFEDB20A8C
:104000009FEDC00AC048FDF797F9DFEDAF0A9FEDBD
:10401000BF0ABF48FDF790F9DFEDAB0A9FEDBD0A7F
:10402000BD48FDF789F9DFEDA80A9FEDBC0ABC4841
:10403000FDF782F9DFEDA40A9FEDBA0ABA48FDF751
:104040007BF9DFEDA10A9FEDB90AB948FDF774F9D4
:10405000DFED9D0A9FEDB70AB748FDF76DF9DFED7B
:104060009A0A9FEDB60AB648FDF766F9DFED960AA3
:104070009FEDB40AB448FDF75FF9DFED930A9FEDB9
:10408000B30AB348FDF758F9DFED8F0A9FEDB10A87
:10409000B148FDF751F9DFED8C0A9FEDB00AB04849
:1040A000FDF74AF9DFED880A9FEDAE0AAE48FDF74D
:1040B00043F9DFED850A9FEDAD0AAD48FDF73CF908
:1040C000DFED810A9FEDAB0AAB48FDF735F9DFED77
:1040D0007E0A9FEDAA0AAA48FDF72EF9DFED7A0ABB
:1040E0009FEDA80AA848FDF727F9DFED770A9FEDB5
:1040F000A70AA748FDF720F9DFED730A9FEDA50A8F
:10410000A548FDF719F9DFED700A9FEDA40AA44850
:10411000FDF712F9DFED6C0A9FEDA20AA248FDF748
:104120000BF9DFED690A9FEDA10AA148FDF704F93B
:10413000DFED650A9FED9F0A9F48FDF7FDF8DFED73
:10414000620A9FED9E0A9E48FDF7F6F8DFED5E0AD3
:104150009FED9C0A9C48FDF7EFF8DFED5B0A9FEDB1
:104160009B0A9B48FDF7E8F8DFED570A9FED990A97
:104170009948FDF7E1F8DFED540A9FED980A984859
:10418000FDF7DAF8DFED500A9FED960A9648FDF745
:10419000D3F8DFED4D0A9FED950A9548FDF7CCF871
:1041A000DFED490A9FED930A9348FDF7C5F8DFED6F
:1041B000460A9FED920A9248FDF7BEF8DFED420AEB
:1041C0009FED900A9048FDF7B7F8DFED3F0A9FEDAD
:1041D0008F0A8F48FDF7B0F8DFED3B0A9FED8D0A9F
:1041E0008D48FDF7A9F8DFED380A9FED8C0A8C4861
:1041F000FDF7A2F8DFED340A9FED8A0A8A48FDF741
:104200009BF8DFED310A9FED890A8948FDF794F8A4
:10421000DFED2D0A9FED870A8748FDF78DF8DFED6A
:104220002A0A9FED860A8648FDF786F8DFED260A02
:104230009FED840A8448FDF77FF8DFED230A9FEDA8
:10424000830A8348FDF778F8DFED1F0A9FED810AA6
:104250008148FDF771F8DFED1C0A9FED800A804868
:10426000FDF76AF8DFED180A9FED7E0A7E48FDF73C
:1042700063F8DFED150A9FED7D0A7D48FDF75CF8D8
:10428000DFED110A9FED7B0A7B48FDF755F8DFED66
:104290000E0A9FED7A0A7A48FDF74EF8DFED0A0A1A
:1042A0009FED780A7848FDF747F8DFED070A9FEDA4
:1042B000770A7748FDF740F8DFED030A9FED750AAE
:1042C0007548FDF739F8EDE000000000A828FF1F51
:1042D0000002FF1FB028FF1FB828FF1FC028FF1FC4
:1042E000C828FF1FD028FF1FD828FF1FE028FF1F66
:1042F000E828FF1FF028FF1FF828FF1F00000442D6
:104300000029FF1F000010420829FF1F00001C4267
:104310001029FF1F000028421829FF1F0000344207
:104320002029FF1F000040422829FF1F00004C42A7
:104330003029FF1F000058423829FF1F0000644247
:104340004029FF1F000070424829FF1F00007C42E7
:104350005029FF1F000084425829FF1F00008A4295
:104360006029FF1F000090426829FF1F000096424D
:104370007029FF1F00009C427829FF1F0000A24205
:104380008029FF1F0000A8428829FF1F0000AE42BD
:104390009029FF1F0000B4429829FF1F0000BA4275
:1043A000A029FF1F0000C042A829FF1F0000C6422D
:1043B000B029FF1F0000CC42B829FF1F0000D242E5
:1043C000C029FF1F0000D842C829FF1F0000DE429D
:1043D000D029FF1F0000E442D829FF1F0000EA4255
:1043E000E029FF1F0000F042E829FF1F0000F6420D
:1043F000F029FF1F0000FC42F829FF1F00000143C5
:10440000002AFF1F00000443082AFF1F0000074383
:10441000102AFF1F00000A43182AFF1F00000D4347
:10442000202AFF1F00001043282AFF1F000013430B
:10443000302AFF1F00001643382AFF1F00001943CF
:10444000402AFF1F00001C43482AFF1F00001F4393
:10445000502AFF1F00002243582AFF1F0000254357
:10446000602AFF1F00002843682AFF1F00002B431B
:10447000702AFF1F00002E43782AFF1F00003143DF
:10448000802AFF1F00003443882AFF1F00003743A3
:10449000902AFF1F00003A43982AFF1F00000000E7
:1044A00000003D435FED030A1FED030ADE48FCF701
:1044B00043FFF0EE080A9FEDDD0ADD48FCF73CFF04
:1044C000F0EE080AB0EE600ADA48FCF735FFF0EECD
:1044D000080AB1EE080AD848FCF72EFFF0EE080AE9
:1044E000B2EE020AD548FCF727FFF0EE080AB2EE5A
:1044F000080AD348FCF720FFF0EE080AB2EE0E0AD5
:10450000D048FCF719FFF0EE080AB3EE020ACE48D5
:10451000FCF712FFF0EE080AB3EE050ACB48FCF7F1
:104520000BFFF0EE080AB3EE080AC948FCF704FFD7
:10453000F0EE080AB3EE0B0AC648FCF7FDFEF0EEFB
:10454000080AB3EE0E0AC448FCF7F6FEF0EE080ABD
:104550009FEDC20AC248FCF7EFFEF0EE080A9FED9D
:10456000C10AC148FCF7E8FEF0EE080A9FEDBF0A59
:10457000BF48FCF7E1FEF0EE080A9FEDBE0ABE4818
:10458000FCF7DAFEF0EE080A9FEDBC0ABC48FCF727
:10459000D3FEF0EE080A9FEDBB0ABB48FCF7CCFE49
:1045A000F0EE080A9FEDB90AB948FCF7C5FEF0EE37
:1045B000080A9FEDB80AB848FCF7BEFEF0EE080AFC
:1045C0009FEDB60AB648FCF7B7FEF0EE080A9FED7D
:1045D000B50AB548FCF7B0FEF0EE080A9FEDB30A45
:1045E000B348FCF7A9FEF0EE080A9FEDB20AB24804
:1045F000FCF7A2FEF0EE080A9FEDB00AB048FCF707
:104600009BFEF0EE080A9FEDAF0AAF48FCF794FE60
:10461000F0EE080A9FEDAD0AAD48FCF78DFEF0EE16
:10462000080A9FEDAC0AAC48FCF786FEF0EE080ADB
:104630009FEDAA0AAA48FCF77FFEF0EE080A9FED5C
:10464000A90AA948FCF778FEF0EE080A9FEDA70A30
:10465000A748FCF771FEF0EE080A9FEDA60AA648EF
:10466000FCF76AFEF0EE080A9FEDA40AA448FCF7E6
:1046700063FEF0EE080A9FEDA30AA348FCF75CFE78
:10468000F0EE080A9FEDA10AA148FCF755FEF0EEF6
:10469000080A9FEDA00AA048FCF74EFEF0EE080ABB
:1046A0009FED9E0A9E48FCF747FEF0EE080A9FED3C
:1046B0009D0A9D48FCF740FEF0EE080A9FED9B0A1C
:1046C0009B48FCF739FEF0EE080A9FED9A0A9A48DB
:1046D000FCF732FEF0EE080A9FED980A9848FCF7C6
:1046E0002BFEF0EE080A9FED970A9748FCF724FE90
:1046F000F0EE080A9FED950A9548FCF71DFEF0EED6
:10470000080A9FED940A9448FCF716FEF0EE080A9A
:104710009FED920A9248FCF70FFEF0EE080A9FED1B
:10472000910A9148FCF708FEF0EE080A9FED8F0A07
:104730008F48FCF701FEF0EE080A9FED8E0A8E48C6
:10474000FCF7FAFDF0EE080A9FED8C0A8C48FCF7A6
:10475000F3FDF0EE080A9FED8B0A8B48FCF7ECFDA9
:10476000F0EE080A9FED890A8948FCF7E5FDF0EEB6
:10477000080A9FED880A8848FCF7DEFDF0EE080A7B
:104780009FED860A8648FCF7D7FDF0EE080A9FEDFC
:10479000850A8548FCF7D0FDF0EE080A9FED830AF4
:1047A0008348FCF7C9FDF0EE080A9FED820A8248B3
:1047B000FCF7C2FDF0EE080A9FED800A8048FCF786
:1047C000BBFDF0EE080A9FED7F0A7F48FCF7B4FDC1
:1047D000F0EE080A9FED7D0A7D48FCF7ADFDF0EE96
:1047E000080A9FED7C0A7C48FCF7A6FDF0EE080A5B
:1047F0009FED7A0A7A48FCF79FFDF0EE080A9FEDDC
:10480000790A7948FCF798FDF0EE080A9FED770ADF
:104810007748FCF791FDF0EE080A9FED760A76489E
:10482000FCF78AFDECE000BFA02AFF1F000000009B
:10483000A82AFF1FB02AFF1FB82AFF1FC02AFF1F88
:10484000C82AFF1FD02AFF1FD82AFF1FE02AFF1FF8
:10485000E82AFF1FF02AFF1FF82AFF1F000004426A
:10486000002BFF1F00001042082BFF1F00001C42FE
:10487000102BFF1F00002842182BFF1F000034429E
:10488000202BFF1F00004042282BFF1F00004C423E
:10489000302BFF1F00005842382BFF1F00006442DE
:1048A000402BFF1F00007042482BFF1F00007C427E
:1048B000502BFF1F00008442582BFF1F00008A422C
:1048C000602BFF1F00009042682BFF1F00009642E4
:1048D000702BFF1F00009C42782BFF1F0000A2429C
:1048E000802BFF1F0000A842882BFF1F0000AE4254
:1048F000902BFF1F0000B442982BFF1F0000BA420C
:10490000A02BFF1F0000C042A82BFF1F0000C642C3
:10491000B02BFF1F0000CC42B82BFF1F0000D2427B
:10492000C02BFF1F0000D842C82BFF1F0000DE4233
:10493000D02BFF1F0000E442D82BFF1F0000EA42EB
:10494000E02BFF1F0000F042E82BFF1F0000F642A3
:10495000F02BFF1F0000FC42F82BFF1F000001435B
:10496000002CFF1F00000443082CFF1F000007431A
:10497000102CFF1F00000A43182CFF1F00000D43DE
:10498000202CFF1F00001043282CFF1F00001343A2
:10499000302CFF1F00001643382CFF1F0000194366
:1049A000402CFF1F00001C43482CFF1F00001F432A
:1049B000502CFF1F00002243582CFF1F00002543EE
:1049C000602CFF1F00002843682CFF1F00002B43B2
:1049D000702CFF1F00002E43782CFF1F0000314376
:1049E000802CFF1F00003443882CFF1F000037433A
:1049F000902CFF1F00003A43982CFF1F00003D43FE
:104A0000F0EE080A1FED030ADE48FCF795FCF1EE14
:104A1000080A9FEDDD0ADD48FCF78EFCF1EE080A7E
:104A2000B0EE080ADA48FCF787FCF1EE080AB0EEAF
:104A3000600AD848FCF780FCF1EE080AB2EE020AE0
:104A4000D548FCF779FCF1EE080AB2EE080AD34823
:104A5000FCF772FCF1EE080AB2EE0E0AD048FCF741
:104A60006BFCF1EE080AB3EE020ACE48FCF764FCD8
:104A7000F1EE080AB3EE050ACB48FCF75DFCF1EE57
:104A8000080AB3EE080AC948FCF756FCF1EE080A1A
:104A9000B3EE0B0AC648FCF74FFCF1EE080AB3EE82
:104AA0000E0AC448FCF748FCF1EE080A9FEDC20A62
:104AB000C248FCF741FCF1EE080A9FEDC10AC1486B
:104AC000FCF73AFCF1EE080A9FEDBF0ABF48FCF77D
:104AD00033FCF1EE080A9FEDBE0ABE48FCF72CFC41
:104AE000F1EE080A9FEDBC0ABC48FCF725FCF1EE8C
:104AF000080A9FEDBB0ABB48FCF71EFCF1EE080A52
:104B00009FEDB90AB948FCF717FCF1EE080A9FEDD2
:104B1000B80AB848FCF710FCF1EE080A9FEDB60A97
:104B2000B648FCF709FCF1EE080A9FEDB50AB54856
:104B3000FCF702FCF1EE080A9FEDB30AB348FCF75C
:104B4000FBFBF1EE080A9FEDB20AB248FCF7F4FB5A
:104B5000F1EE080A9FEDB00AB048FCF7EDFBF1EE6C
:104B6000080A9FEDAF0AAF48FCF7E6FBF1EE080A32
:104B70009FEDAD0AAD48FCF7DFFBF1EE080A9FEDB3
:104B8000AC0AAC48FCF7D8FBF1EE080A9FEDAA0A84
:104B9000AA48FCF7D1FBF1EE080A9FEDA90AA94843
:104BA000FCF7CAFBF1EE080A9FEDA70AA748FCF73D
:104BB000C3FBF1EE080A9FEDA60AA648FCF7BCFB72
:104BC000F1EE080A9FEDA40AA448FCF7B5FBF1EE4C
:104BD000080A9FEDA30AA348FCF7AEFBF1EE080A12
:104BE0009FEDA10AA148FCF7A7FBF1EE080A9FED93
:104BF000A00AA048FCF7A0FBF1EE080A9FED9E0A70
:104C00009E48FCF799FBF1EE080A9FED9D0A9D482E
:104C1000FCF792FBF1EE080A9FED9B0A9B48FCF71C
:104C20008BFBF1EE080A9FED9A0A9A48FCF784FB89
:104C3000F1EE080A9FED980A9848FCF77DFBF1EE2B
:104C4000080A9FED970A9748FCF776FBF1EE080AF1
:104C50009FED950A9548FCF76FFBF1EE080A9FED72
:104C6000940A9448FCF768FBF1EE080A9FED920A5B
:104C70009248FCF761FBF1EE080A9FED910A91481A
:104C8000FCF75AFBF1EE080A9FED8F0A8F48FCF7FC
:104C900053FBF1EE080A9FED8E0A8E48FCF74CFBA1
:104CA000F1EE080A9FED8C0A8C48FCF745FBF1EE0B
:104CB000080A9FED8B0A8B48FCF73EFBF1EE080AD1
:104CC0009FED890A8948FCF737FBF1EE080A9FED52
:104CD000880A8848FCF730FBF1EE080A9FED860A47
:104CE0008648FCF729FBF1EE080A9FED850A854806
:104CF000FCF722FBF1EE080A9FED830A8348FCF7DC
:104D00001BFBF1EE080A9FED820A8248FCF714FBB8
:104D1000F1EE080A9FED800A8048FCF70DFBF1EEEA
:104D2000080A9FED7F0A7F48FCF706FBF1EE080AB0
:104D30009FED7D0A7D48FCF7FFFAF1EE080A9FED32
:104D40007C0A7C48FCF7F8FAF1EE080A9FED7A0A33
:104D50007A48FCF7F1FAF1EE080A9FED790A7948F2
:104D6000FCF7EAFAF1EE080A9FED770A7748FCF7BC
:104D7000E3FAF1EE080A9FED760A7648FCF7DCFAD2
:104D8000ECE000BFA02CFF1F00000000A82CFF1FBC
:104D9000B02CFF1FB82CFF1FC02CFF1FC82CFF1FFB
:104DA000D02CFF1FD82CFF1FE02CFF1FE82CFF1F6B
:104DB000F02CFF1FF82CFF1F00000442002DFF1FE6
:104DC00000001042082DFF1F00001C42102DFF1F85
:104DD00000002842182DFF1F00003442202DFF1F25
:104DE00000004042282DFF1F00004C42302DFF1FC5
:104DF00000005842382DFF1F00006442402DFF1F65
:104E000000007042482DFF1F00007C42502DFF1F04
:104E100000008442582DFF1F00008A42602DFF1FB2
:104E200000009042682DFF1F00009642702DFF1F6A
:104E300000009C42782DFF1F0000A242802DFF1F22
:104E40000000A842882DFF1F0000AE42902DFF1FDA
:104E50000000B442982DFF1F0000BA42A02DFF1F92
:104E60000000C042A82DFF1F0000C642B02DFF1F4A
:104E70000000CC42B82DFF1F0000D242C02DFF1F02
:104E80000000D842C82DFF1F0000DE42D02DFF1FBA
:104E90000000E442D82DFF1F0000EA42E02DFF1F72
:104EA0000000F042E82DFF1F0000F642F02DFF1F2A
:104EB0000000FC42F82DFF1F00000143002EFF1FE1
:104EC00000000443082EFF1F00000743102EFF1FA1
:104ED00000000A43182EFF1F00000D43202EFF1F65
:104EE00000001043282EFF1F00001343302EFF1F29
:104EF00000001643382EFF1F00001943402EFF1FED
:104F000000001C43482EFF1F00001F43502EFF1FB0
:104F100000002243582EFF1F00002543602EFF1F74
:104F200000002843682EFF1F00002B43702EFF1F38
:104F300000002E43782EFF1F00003143802EFF1FFC
:104F400000003443882EFF1F00003743902EFF1FC0
:104F500000003A43982EFF1F00003D43F1EE080A7F
:104F60001FED030ADE48FCF7E7F9F2EE020A9FEDB7
:104F7000DD0ADD48FCF7E0F9F2EE020AB0EE080ABD
:104F8000DA48FCF7D9F9F2EE020AB1EE080AD8487D
:104F9000FCF7D2F9F2EE020AB0EE600AD548FCF74F
:104FA000CBF9F2EE020AB2EE080AD348FCF7C4F9D4
:104FB000F2EE020AB2EE0E0AD048FCF7BDF9F2EEAC
:104FC000020AB3EE020ACE48FCF7B6F9F2EE020A84
:104FD000B3EE050ACB48FCF7AFF9F2EE020AB3EEE6
:104FE000080AC948FCF7A8F9F2EE020AB3EE0B0A68
:104FF000C648FCF7A1F9F2EE020AB3EE0E0AC44865
:10500000FCF79AF9F2EE020A9FEDC20AC248FCF7D9
:1050100093F9F2EE020A9FEDC10AC148FCF78CF940
:10502000F2EE020A9FEDBF0ABF48FCF785F9F2EEE7
:10503000020A9FEDBE0ABE48FCF77EF9F2EE020AB4
:105040009FEDBC0ABC48FCF777F9F2EE020A9FED2F
:10505000BB0ABB48FCF770F9F2EE020A9FEDB90AF1
:10506000B948FCF769F9F2EE020A9FEDB80AB848B0
:10507000FCF762F9F2EE020A9FEDB60AB648FCF7B9
:105080005BF9F2EE020A9FEDB50AB548FCF754F958
:10509000F2EE020A9FEDB30AB348FCF74DF9F2EEC7
:1050A000020A9FEDB20AB248FCF746F9F2EE020A94
:1050B0009FEDB00AB048FCF73FF9F2EE020A9FED0F
:1050C000AF0AAF48FCF738F9F2EE020A9FEDAD0ADD
:1050D000AD48FCF731F9F2EE020A9FEDAC0AAC489C
:1050E000FCF72AF9F2EE020A9FEDAA0AAA48FCF799
:1050F00023F9F2EE020A9FEDA90AA948FCF71CF970
:10510000F2EE020A9FEDA70AA748FCF715F9F2EEA6
:10511000020A9FEDA60AA648FCF70EF9F2EE020A73
:105120009FEDA40AA448FCF707F9F2EE020A9FEDEE
:10513000A30AA348FCF700F9F2EE020A9FEDA10AC8
:10514000A148FCF7F9F8F2EE020A9FEDA00AA04888
:10515000FCF7F2F8F2EE020A9FED9E0A9E48FCF779
:10516000EBF8F2EE020A9FED9D0A9D48FCF7E4F889
:10517000F2EE020A9FED9B0A9B48FCF7DDF8F2EE87
:10518000020A9FED9A0A9A48FCF7D6F8F2EE020A54
:105190009FED980A9848FCF7CFF8F2EE020A9FEDCF
:1051A000970A9748FCF7C8F8F2EE020A9FED950AB5
:1051B0009548FCF7C1F8F2EE020A9FED940A944874
:1051C000FCF7BAF8F2EE020A9FED920A9248FCF759
:1051D000B3F8F2EE020A9FED910A9148FCF7ACF8A1
:1051E000F2EE020A9FED8F0A8F48FCF7A5F8F2EE67
:1051F000020A9FED8E0A8E48FCF79EF8F2EE020A34
:105200009FED8C0A8C48FCF797F8F2EE020A9FEDAE
:105210008B0A8B48FCF790F8F2EE020A9FED890AA0
:105220008948FCF789F8F2EE020A9FED880A88485F
:10523000FCF782F8F2EE020A9FED860A8648FCF738
:105240007BF8F2EE020A9FED850A8548FCF774F8B8
:10525000F2EE020A9FED830A8348FCF76DF8F2EE46
:10526000020A9FED820A8248FCF766F8F2EE020A13
:105270009FED800A8048FCF75FF8F2EE020A9FED8E
:105280007F0A7F48FCF758F8F2EE020A9FED7D0A8C
:105290007D48FCF751F8F2EE020A9FED7C0A7C484B
:1052A000FCF74AF8F2EE020A9FED7A0A7A48FCF718
:1052B00043F8F2EE020A9FED790A7948FCF73CF8D0
:1052C000F2EE020A9FED770A7748FCF735F8F2EE26
:1052D000020A9FED760A7648FCF72EF8ECE000BF54
:1052E000A02EFF1F00000000A82EFF1FB02EFF1FE2
:1052F000B82EFF1FC02EFF1FC82EFF1FD02EFF1F6E
:10530000D82EFF1FE02EFF1FE82EFF1FF02EFF1FDD
:10531000F82EFF1F00000442002FFF1F0000104264
:10532000082FFF1F00001C42102FFF1F0000284203
:10533000182FFF1F00003442202FFF1F00004042A3
:10534000282FFF1F00004C42302FFF1F0000584243
:10535000382FFF1F00006442402FFF1F00007042E3
:10536000482FFF1F00007C42502FFF1F0000844287
:10537000582FFF1F00008A42602FFF1F000090423D
:10538000682FFF1F00009642702FFF1F00009C42F5
:10539000782FFF1F0000A242802FFF1F0000A842AD
:1053A000882FFF1F0000AE42902FFF1F0000B44265
:1053B000982FFF1F0000BA42A02FFF1F0000C0421D
:1053C000A82FFF1F0000C642B02FFF1F0000CC42D5
:1053D000B82FFF1F0000D242C02FFF1F0000D8428D
:1053E000C82FFF1F0000DE42D02FFF1F0000E44245
:1053F000D82FFF1F0000EA42E02FFF1F0000F042FD
:10540000E82FFF1F0000F642F02FFF1F0000FC42B4
:10541000F82FFF1F000001430030FF1F000004436E
:105420000830FF1F000007431030FF1F00000A4331
:105430001830FF1F00000D432030FF1F00001043F5
:105440002830FF1F000013433030FF1F00001643B9
:105450003830FF1F000019434030FF1F00001C437D
:105460004830FF1F00001F435030FF1F0000224341
:105470005830FF1F000025436030FF1F0000284305
:105480006830FF1F00002B437030FF1F00002E43C9
:105490007830FF1F000031438030FF1F000034438D
:1054A0008830FF1F000037439030FF1F00003A4351
:1054B0009830FF1F00003D43F2EE020A1FED030A81
:1054C000DE48FBF739FFF2EE080A9FEDDD0ADD4802
:1054D000FBF732FFF2EE080AB0EE080ADA48FBF7F3
:1054E0002BFFF2EE080AB1EE080AD848FBF724FFBA
:1054F000F2EE080AB2EE020AD548FBF71DFFF2EE03
:10550000080AB0EE600AD348FBF716FFF2EE080A6D
:10551000B2EE0E0AD048FBF70FFFF2EE080AB3EE28
:10552000020ACE48FBF708FFF2EE080AB3EE050ABE
:10553000CB48FBF701FFF2EE080AB3EE080AC948B0
:10554000FBF7FAFEF2EE080AB3EE0B0AC648FBF7C9
:10555000F3FEF2EE080AB3EE0E0AC448FBF7ECFEC7
:10556000F2EE080A9FEDC20AC248FBF7E5FEF2EE32
:10557000080A9FEDC10AC148FBF7DEFEF2EE080AF9
:105580009FEDBF0ABF48FBF7D7FEF2EE080A9FED7A
:10559000BE0ABE48FBF7D0FEF2EE080A9FEDBC0A39
:1055A000BC48FBF7C9FEF2EE080A9FEDBB0ABB48F8
:1055B000FBF7C2FEF2EE080A9FEDB90AB948FBF705
:1055C000BBFEF2EE080A9FEDB80AB848FBF7B4FE3E
:1055D000F2EE080A9FEDB60AB648FBF7ADFEF2EE12
:1055E000080A9FEDB50AB548FBF7A6FEF2EE080AD9
:1055F0009FEDB30AB348FBF79FFEF2EE080A9FED5A
:10560000B20AB248FBF798FEF2EE080A9FEDB00A24
:10561000B048FBF791FEF2EE080A9FEDAF0AAF48E3
:10562000FBF78AFEF2EE080A9FEDAD0AAD48FBF7E4
:1056300083FEF2EE080A9FEDAC0AAC48FBF77CFE55
:10564000F2EE080A9FEDAA0AAA48FBF775FEF2EEF1
:10565000080A9FEDA90AA948FBF76EFEF2EE080AB8
:105660009FEDA70AA748FBF767FEF2EE080A9FED39
:10567000A60AA648FBF760FEF2EE080A9FEDA40A10
:10568000A448FBF759FEF2EE080A9FEDA30AA348CF
:10569000FBF752FEF2EE080A9FEDA10AA148FBF7C4
:1056A0004BFEF2EE080A9FEDA00AA048FBF744FE6D
:1056B000F2EE080A9FED9E0A9E48FBF73DFEF2EED1
:1056C000080A9FED9D0A9D48FBF736FEF2EE080A98
:1056D0009FED9B0A9B48FBF72FFEF2EE080A9FED19
:1056E0009A0A9A48FBF728FEF2EE080A9FED980AFC
:1056F0009848FBF721FEF2EE080A9FED970A9748BB
:10570000FBF71AFEF2EE080A9FED950A9548FBF7A3
:1057100013FEF2EE080A9FED940A9448FBF70CFE84
:10572000F2EE080A9FED920A9248FBF705FEF2EEB0
:10573000080A9FED910A9148FBF7FEFDF2EE080A78
:105740009FED8F0A8F48FBF7F7FDF2EE080A9FEDF9
:105750008E0A8E48FBF7F0FDF2EE080A9FED8C0AE8
:105760008C48FBF7E9FDF2EE080A9FED8B0A8B48A7
:10577000FBF7E2FDF2EE080A9FED890A8948FBF784
:10578000DBFDF2EE080A9FED880A8848FBF7D4FD9E
:10579000F2EE080A9FED860A8648FBF7CDFDF2EE91
:1057A000080A9FED850A8548FBF7C6FDF2EE080A58
:1057B0009FED830A8348FBF7BFFDF2EE080A9FEDD9
:1057C000820A8248FBF7B8FDF2EE080A9FED800AD4
:1057D0008048FBF7B1FDF2EE080A9FED7F0A7F4893
:1057E000FBF7AAFDF2EE080A9FED7D0A7D48FBF764
:1057F000A3FDF2EE080A9FED7C0A7C48FBF79CFDB6
:10580000F2EE080A9FED7A0A7A48FBF795FDF2EE70
:10581000080A9FED790A7948FBF78EFDF2EE080A37
:105820009FED770A7748FBF787FDF2EE080A9FEDB8
:10583000760A7648FBF780FDECE000BFA030FF1F42
:1058400000000000A830FF1FB030FF1FB830FF1F5E
:10585000C030FF1FC830FF1FD030FF1FD830FF1FE0
:10586000E030FF1FE830FF1FF030FF1FF830FF1F50
:10587000000004420031FF1F000010420831FF1FEA
:1058800000001C421031FF1F000028421831FF1F8A
:10589000000034422031FF1F000040422831FF1F2A
:1058A00000004C423031FF1F000058423831FF1FCA
:1058B000000064424031FF1F000070424831FF1F6A
:1058C00000007C425031FF1F000084425831FF1F0E
:1058D00000008A426031FF1F000090426831FF1FC4
:1058E000000096427031FF1F00009C427831FF1F7C
:1058F0000000A2428031FF1F0000A8428831FF1F34
:105900000000AE429031FF1F0000B4429831FF1FEB
:105910000000BA42A031FF1F0000C042A831FF1FA3
:105920000000C642B031FF1F0000CC42B831FF1F5B
:105930000000D242C031FF1F0000D842C831FF1F13
:105940000000DE42D031FF1F0000E442D831FF1FCB
:105950000000EA42E031FF1F0000F042E831FF1F83
:105960000000F642F031FF1F0000FC42F831FF1F3B
:10597000000001430032FF1F000004430832FF1FF4
:10598000000007431032FF1F00000A431832FF1FB8
:1059900000000D432032FF1F000010432832FF1F7C
:1059A000000013433032FF1F000016433832FF1F40
:1059B000000019434032FF1F00001C434832FF1F04
:1059C00000001F435032FF1F000022435832FF1FC8
:1059D000000025436032FF1F000028436832FF1F8C
:1059E00000002B437032FF1F00002E437832FF1F50
:1059F000000031438032FF1F000034438832FF1F14
:105A0000000037439032FF1F00003A439832FF1FD7
:105A100000003D43F2EE080A1FED030ADE48FBF7E3
:105A20008BFCF2EE0E0A9FEDDD0ADD48FBF784FCED
:105A3000F2EE0E0AB0EE080ADA48FBF77DFCF2EE51
:105A40000E0AB1EE080AD848FBF776FCF2EE0E0A11
:105A5000B2EE020AD548FBF76FFCF2EE0E0AB2EE88
:105A6000080AD348FBF768FCF2EE0E0AB0EE600AB3
:105A7000D048FBF761FCF2EE0E0AB3EE020ACE4804
:105A8000FBF75AFCF2EE0E0AB3EE050ACB48FBF721
:105A900053FCF2EE0E0AB3EE080AC948FBF74CFCC1
:105AA000F2EE0E0AB3EE0B0AC648FBF745FCF2EE27
:105AB0000E0AB3EE0E0AC448FBF73EFCF2EE0E0AE5
:105AC0009FEDC20AC248FBF737FCF2EE0E0A9FEDCB
:105AD000C10AC148FBF730FCF2EE0E0A9FEDBF0A87
